{
  "contractName": "Game",
  "abi": [
    {
      "inputs": [
        {
          "internalType": "address",
          "name": "_nftWeaponAddress",
          "type": "address"
        },
        {
          "internalType": "uint64",
          "name": "_subscriptionId",
          "type": "uint64"
        },
        {
          "internalType": "address",
          "name": "_cordinatorAddress",
          "type": "address"
        },
        {
          "internalType": "bytes32",
          "name": "_keyHash",
          "type": "bytes32"
        },
        {
          "internalType": "uint256",
          "name": "_nftPrice",
          "type": "uint256"
        },
        {
          "internalType": "uint256",
          "name": "_upgradePrice",
          "type": "uint256"
        },
        {
          "internalType": "uint8",
          "name": "_difficulty",
          "type": "uint8"
        }
      ],
      "stateMutability": "nonpayable",
      "type": "constructor"
    },
    {
      "inputs": [
        {
          "internalType": "address",
          "name": "have",
          "type": "address"
        },
        {
          "internalType": "address",
          "name": "want",
          "type": "address"
        }
      ],
      "name": "OnlyCoordinatorCanFulfill",
      "type": "error"
    },
    {
      "anonymous": false,
      "inputs": [
        {
          "indexed": true,
          "internalType": "address",
          "name": "owner",
          "type": "address"
        },
        {
          "indexed": false,
          "internalType": "uint256",
          "name": "tokenId",
          "type": "uint256"
        }
      ],
      "name": "NFTBought",
      "type": "event"
    },
    {
      "anonymous": false,
      "inputs": [
        {
          "indexed": true,
          "internalType": "address",
          "name": "previousOwner",
          "type": "address"
        },
        {
          "indexed": true,
          "internalType": "address",
          "name": "newOwner",
          "type": "address"
        }
      ],
      "name": "OwnershipTransferred",
      "type": "event"
    },
    {
      "anonymous": false,
      "inputs": [
        {
          "indexed": false,
          "internalType": "uint256",
          "name": "requestId",
          "type": "uint256"
        },
        {
          "indexed": false,
          "internalType": "uint256[]",
          "name": "randomWords",
          "type": "uint256[]"
        }
      ],
      "name": "RequestFulfilled",
      "type": "event"
    },
    {
      "anonymous": false,
      "inputs": [
        {
          "indexed": false,
          "internalType": "uint256",
          "name": "requestId",
          "type": "uint256"
        },
        {
          "indexed": false,
          "internalType": "uint32",
          "name": "numWords",
          "type": "uint32"
        }
      ],
      "name": "RequestSent",
      "type": "event"
    },
    {
      "anonymous": false,
      "inputs": [
        {
          "indexed": true,
          "internalType": "address",
          "name": "owner",
          "type": "address"
        },
        {
          "indexed": false,
          "internalType": "uint8",
          "name": "luckValue",
          "type": "uint8"
        },
        {
          "indexed": false,
          "internalType": "uint256",
          "name": "nftId",
          "type": "uint256"
        },
        {
          "indexed": false,
          "internalType": "uint256",
          "name": "chainlinkId",
          "type": "uint256"
        }
      ],
      "name": "Upgrade",
      "type": "event"
    },
    {
      "anonymous": false,
      "inputs": [
        {
          "indexed": true,
          "internalType": "address",
          "name": "owner",
          "type": "address"
        },
        {
          "indexed": false,
          "internalType": "uint8",
          "name": "luckValue",
          "type": "uint8"
        },
        {
          "indexed": false,
          "internalType": "uint256",
          "name": "nftId",
          "type": "uint256"
        },
        {
          "indexed": false,
          "internalType": "uint256",
          "name": "chainlinkId",
          "type": "uint256"
        },
        {
          "indexed": false,
          "internalType": "uint8",
          "name": "resultValue",
          "type": "uint8"
        }
      ],
      "name": "UpgradeFail",
      "type": "event"
    },
    {
      "anonymous": false,
      "inputs": [
        {
          "indexed": true,
          "internalType": "address",
          "name": "owner",
          "type": "address"
        },
        {
          "indexed": false,
          "internalType": "uint8",
          "name": "luckValue",
          "type": "uint8"
        },
        {
          "indexed": false,
          "internalType": "uint256",
          "name": "nftId",
          "type": "uint256"
        },
        {
          "indexed": false,
          "internalType": "uint256",
          "name": "chainlinkId",
          "type": "uint256"
        },
        {
          "indexed": false,
          "internalType": "uint8",
          "name": "resultValue",
          "type": "uint8"
        }
      ],
      "name": "UpgradeSuccess",
      "type": "event"
    },
    {
      "inputs": [
        {
          "internalType": "uint256",
          "name": "_requestId",
          "type": "uint256"
        }
      ],
      "name": "getRequestStatus",
      "outputs": [
        {
          "internalType": "bool",
          "name": "fulfilled",
          "type": "bool"
        },
        {
          "internalType": "uint256[]",
          "name": "randomWords",
          "type": "uint256[]"
        }
      ],
      "stateMutability": "view",
      "type": "function",
      "constant": true
    },
    {
      "inputs": [],
      "name": "lastRequestId",
      "outputs": [
        {
          "internalType": "uint256",
          "name": "",
          "type": "uint256"
        }
      ],
      "stateMutability": "view",
      "type": "function",
      "constant": true
    },
    {
      "inputs": [],
      "name": "owner",
      "outputs": [
        {
          "internalType": "address",
          "name": "",
          "type": "address"
        }
      ],
      "stateMutability": "view",
      "type": "function",
      "constant": true
    },
    {
      "inputs": [
        {
          "internalType": "uint256",
          "name": "requestId",
          "type": "uint256"
        },
        {
          "internalType": "uint256[]",
          "name": "randomWords",
          "type": "uint256[]"
        }
      ],
      "name": "rawFulfillRandomWords",
      "outputs": [],
      "stateMutability": "nonpayable",
      "type": "function"
    },
    {
      "inputs": [],
      "name": "renounceOwnership",
      "outputs": [],
      "stateMutability": "nonpayable",
      "type": "function"
    },
    {
      "inputs": [
        {
          "internalType": "uint256",
          "name": "",
          "type": "uint256"
        }
      ],
      "name": "requestIds",
      "outputs": [
        {
          "internalType": "uint256",
          "name": "",
          "type": "uint256"
        }
      ],
      "stateMutability": "view",
      "type": "function",
      "constant": true
    },
    {
      "inputs": [
        {
          "internalType": "uint256",
          "name": "",
          "type": "uint256"
        }
      ],
      "name": "s_requests",
      "outputs": [
        {
          "internalType": "bool",
          "name": "fulfilled",
          "type": "bool"
        },
        {
          "internalType": "bool",
          "name": "exists",
          "type": "bool"
        }
      ],
      "stateMutability": "view",
      "type": "function",
      "constant": true
    },
    {
      "inputs": [
        {
          "internalType": "uint32",
          "name": "_callBackGasLimit",
          "type": "uint32"
        }
      ],
      "name": "setCallBackGasLimit",
      "outputs": [],
      "stateMutability": "nonpayable",
      "type": "function"
    },
    {
      "inputs": [
        {
          "internalType": "bytes32",
          "name": "_keyHash",
          "type": "bytes32"
        }
      ],
      "name": "setKeyHashValue",
      "outputs": [],
      "stateMutability": "nonpayable",
      "type": "function"
    },
    {
      "inputs": [
        {
          "internalType": "uint16",
          "name": "_requestConfirmations",
          "type": "uint16"
        }
      ],
      "name": "setRequestConfirmations",
      "outputs": [],
      "stateMutability": "nonpayable",
      "type": "function"
    },
    {
      "inputs": [
        {
          "internalType": "uint64",
          "name": "_s_subscriptionId",
          "type": "uint64"
        }
      ],
      "name": "setSubscriptionId",
      "outputs": [],
      "stateMutability": "nonpayable",
      "type": "function"
    },
    {
      "inputs": [
        {
          "internalType": "address",
          "name": "newOwner",
          "type": "address"
        }
      ],
      "name": "transferOwnership",
      "outputs": [],
      "stateMutability": "nonpayable",
      "type": "function"
    },
    {
      "inputs": [
        {
          "internalType": "uint256",
          "name": "_tokenId",
          "type": "uint256"
        },
        {
          "internalType": "uint8",
          "name": "_luckValue",
          "type": "uint8"
        }
      ],
      "name": "forgeUpgradeWeapon",
      "outputs": [],
      "stateMutability": "payable",
      "type": "function",
      "payable": true
    },
    {
      "inputs": [],
      "name": "buyWeapon",
      "outputs": [],
      "stateMutability": "payable",
      "type": "function",
      "payable": true
    },
    {
      "inputs": [
        {
          "internalType": "uint8",
          "name": "newValue",
          "type": "uint8"
        }
      ],
      "name": "setDifficulty",
      "outputs": [],
      "stateMutability": "nonpayable",
      "type": "function"
    },
    {
      "inputs": [
        {
          "internalType": "uint256",
          "name": "newValue",
          "type": "uint256"
        }
      ],
      "name": "setNftPrice",
      "outputs": [],
      "stateMutability": "nonpayable",
      "type": "function"
    },
    {
      "inputs": [
        {
          "internalType": "uint256",
          "name": "newValue",
          "type": "uint256"
        }
      ],
      "name": "setNftUpgrade",
      "outputs": [],
      "stateMutability": "nonpayable",
      "type": "function"
    },
    {
      "inputs": [],
      "name": "getFunds",
      "outputs": [],
      "stateMutability": "nonpayable",
      "type": "function"
    },
    {
      "inputs": [],
      "name": "getNftPrice",
      "outputs": [
        {
          "internalType": "uint256",
          "name": "_nftPrice",
          "type": "uint256"
        }
      ],
      "stateMutability": "view",
      "type": "function",
      "constant": true
    },
    {
      "inputs": [],
      "name": "getUpgradePrice",
      "outputs": [
        {
          "internalType": "uint256",
          "name": "_nftUpgrade",
          "type": "uint256"
        }
      ],
      "stateMutability": "view",
      "type": "function",
      "constant": true
    }
  ],
  "bytecode": "0x60a06040523480156200001157600080fd5b506040516200255f3803806200255f8339818101604052810190620000379190620004cb565b858585818073ffffffffffffffffffffffffffffffffffffffff1660808173ffffffffffffffffffffffffffffffffffffffff16815250505062000090620000846200029c60201b60201c565b620002a460201b60201c565b6001808190555081600360006101000a81548173ffffffffffffffffffffffffffffffffffffffff021916908373ffffffffffffffffffffffffffffffffffffffff16021790555082600360146101000a81548167ffffffffffffffff021916908367ffffffffffffffff160217905550806006819055506207a120600760006101000a81548163ffffffff021916908363ffffffff1602179055506003600760046101000a81548161ffff021916908361ffff16021790555050505086600760066101000a81548173ffffffffffffffffffffffffffffffffffffffff021916908373ffffffffffffffffffffffffffffffffffffffff16021790555082600a8190555081600b8190555080600960006101000a81548160ff021916908360ff1602179055506001600c600073661cb7aa99e91c2b43db1859b2a2b0672d7ded5573ffffffffffffffffffffffffffffffffffffffff1673ffffffffffffffffffffffffffffffffffffffff16815260200190815260200160002060006101000a81548160ff0219169083151502179055506001600c600073ad1cef3c74b630cfe619629b04320f81b4e9385573ffffffffffffffffffffffffffffffffffffffff1673ffffffffffffffffffffffffffffffffffffffff16815260200190815260200160002060006101000a81548160ff021916908315150217905550505050505050506200057e565b600033905090565b60008060009054906101000a900473ffffffffffffffffffffffffffffffffffffffff169050816000806101000a81548173ffffffffffffffffffffffffffffffffffffffff021916908373ffffffffffffffffffffffffffffffffffffffff1602179055508173ffffffffffffffffffffffffffffffffffffffff168173ffffffffffffffffffffffffffffffffffffffff167f8be0079c531659141344cd1fd0a4f28419497f9722a3daafe3b4186f6b6457e060405160405180910390a35050565b600080fd5b600073ffffffffffffffffffffffffffffffffffffffff82169050919050565b60006200039a826200036d565b9050919050565b620003ac816200038d565b8114620003b857600080fd5b50565b600081519050620003cc81620003a1565b92915050565b600067ffffffffffffffff82169050919050565b620003f181620003d2565b8114620003fd57600080fd5b50565b6000815190506200041181620003e6565b92915050565b6000819050919050565b6200042c8162000417565b81146200043857600080fd5b50565b6000815190506200044c8162000421565b92915050565b6000819050919050565b620004678162000452565b81146200047357600080fd5b50565b60008151905062000487816200045c565b92915050565b600060ff82169050919050565b620004a5816200048d565b8114620004b157600080fd5b50565b600081519050620004c5816200049a565b92915050565b600080600080600080600060e0888a031215620004ed57620004ec62000368565b5b6000620004fd8a828b01620003bb565b9750506020620005108a828b0162000400565b9650506040620005238a828b01620003bb565b9550506060620005368a828b016200043b565b9450506080620005498a828b0162000476565b93505060a06200055c8a828b0162000476565b92505060c06200056f8a828b01620004b4565b91505092959891949750929550565b608051611fbe620005a16000396000818161045001526104a40152611fbe6000f3fe60806040526004361061011f5760003560e01c8063982d8084116100a0578063d8a4676f11610064578063d8a4676f14610389578063ea7b4f77146103c7578063f2fde38b146103f0578063f8e43bf814610419578063fc2a88c3146104235761011f565b8063982d8084146102a5578063a168fa89146102ce578063a7348e5f1461030c578063a963f16f14610335578063c49127741461035e5761011f565b80637d9a7a4c116100e75780637d9a7a4c146101cf5780638796ba8c146101f85780638824f5a7146102355780638b5fe1c71461025e5780638da5cb5b1461027a5761011f565b80631fe543e31461012457806334fec6ff1461014d5780634d9b373514610178578063582202361461018f578063715018a6146101b8575b600080fd5b34801561013057600080fd5b5061014b6004803603810190610146919061167e565b61044e565b005b34801561015957600080fd5b5061016261050e565b60405161016f91906116e9565b60405180910390f35b34801561018457600080fd5b5061018d610518565b005b34801561019b57600080fd5b506101b660048036038101906101b1919061173d565b610570565b005b3480156101c457600080fd5b506101cd610596565b005b3480156101db57600080fd5b506101f660048036038101906101f1919061176a565b6105aa565b005b34801561020457600080fd5b5061021f600480360381019061021a919061176a565b6105bc565b60405161022c91906116e9565b60405180910390f35b34801561024157600080fd5b5061025c600480360381019061025791906117d1565b6105e0565b005b610278600480360381019061027391906117fe565b610608565b005b34801561028657600080fd5b5061028f61080e565b60405161029c919061187f565b60405180910390f35b3480156102b157600080fd5b506102cc60048036038101906102c791906118d6565b610837565b005b3480156102da57600080fd5b506102f560048036038101906102f0919061176a565b610863565b60405161030392919061191e565b60405180910390f35b34801561031857600080fd5b50610333600480360381019061032e919061197d565b6108a1565b005b34801561034157600080fd5b5061035c6004803603810190610357919061176a565b6108b3565b005b34801561036a57600080fd5b506103736108c5565b60405161038091906116e9565b60405180910390f35b34801561039557600080fd5b506103b060048036038101906103ab919061176a565b6108cf565b6040516103be929190611a68565b60405180910390f35b3480156103d357600080fd5b506103ee60048036038101906103e99190611ad8565b6109fa565b005b3480156103fc57600080fd5b5061041760048036038101906104129190611b31565b610a2e565b005b610421610ab1565b005b34801561042f57600080fd5b50610438610bb2565b60405161044591906116e9565b60405180910390f35b7f000000000000000000000000000000000000000000000000000000000000000073ffffffffffffffffffffffffffffffffffffffff163373ffffffffffffffffffffffffffffffffffffffff161461050057337f00000000000000000000000000000000000000000000000000000000000000006040517f1cf993f40000000000000000000000000000000000000000000000000000000081526004016104f7929190611b5e565b60405180910390fd5b61050a8282610bb8565b5050565b6000600b54905090565b610520610d2a565b61052861080e565b73ffffffffffffffffffffffffffffffffffffffff166108fc479081150290604051600060405180830381858888f1935050505015801561056d573d6000803e3d6000fd5b50565b610578610d2a565b80600960006101000a81548160ff021916908360ff16021790555050565b61059e610d2a565b6105a86000610da8565b565b6105b2610d2a565b80600a8190555050565b600481815481106105cc57600080fd5b906000526020600020016000915090505481565b6105e8610d2a565b80600760046101000a81548161ffff021916908361ffff16021790555050565b3373ffffffffffffffffffffffffffffffffffffffff16600760069054906101000a900473ffffffffffffffffffffffffffffffffffffffff1673ffffffffffffffffffffffffffffffffffffffff16636352211e846040518263ffffffff1660e01b815260040161067a91906116e9565b602060405180830381865afa158015610697573d6000803e3d6000fd5b505050506040513d601f19601f820116820180604052508101906106bb9190611b9c565b73ffffffffffffffffffffffffffffffffffffffff16146106db57600080fd5b600960009054906101000a900460ff1660ff168160ff16106106fc57600080fd5b600b54341461070a57600080fd5b60006107166001610e6c565b9050826008600083815260200190815260200160002060000181905550816008600083815260200190815260200160002060010160006101000a81548160ff021916908360ff160217905550336008600083815260200190815260200160002060010160016101000a81548173ffffffffffffffffffffffffffffffffffffffff021916908373ffffffffffffffffffffffffffffffffffffffff1602179055503373ffffffffffffffffffffffffffffffffffffffff167fc278e23c110003b11b6ba64d993423b01a7bda1283527ae1f515545a44d38dd883858460405161080193929190611bd8565b60405180910390a2505050565b60008060009054906101000a900473ffffffffffffffffffffffffffffffffffffffff16905090565b61083f610d2a565b80600760006101000a81548163ffffffff021916908363ffffffff16021790555050565b60026020528060005260406000206000915090508060000160009054906101000a900460ff16908060000160019054906101000a900460ff16905082565b6108a9610d2a565b8060068190555050565b6108bb610d2a565b80600b8190555050565b6000600a54905090565b600060606002600084815260200190815260200160002060000160019054906101000a900460ff16610936576040517f08c379a000000000000000000000000000000000000000000000000000000000815260040161092d90611c6c565b60405180910390fd5b6000600260008581526020019081526020016000206040518060600160405290816000820160009054906101000a900460ff161515151581526020016000820160019054906101000a900460ff16151515158152602001600182018054806020026020016040519081016040528092919081815260200182805480156109db57602002820191906000526020600020905b8154815260200190600101908083116109c7575b5050505050815250509050806000015181604001519250925050915091565b610a02610d2a565b80600360146101000a81548167ffffffffffffffff021916908367ffffffffffffffff16021790555050565b610a36610d2a565b600073ffffffffffffffffffffffffffffffffffffffff168173ffffffffffffffffffffffffffffffffffffffff1603610aa5576040517f08c379a0000000000000000000000000000000000000000000000000000000008152600401610a9c90611cfe565b60405180910390fd5b610aae81610da8565b50565b600a543414610abf57600080fd5b6000600760069054906101000a900473ffffffffffffffffffffffffffffffffffffffff1673ffffffffffffffffffffffffffffffffffffffff166340d097c3336040518263ffffffff1660e01b8152600401610b1c919061187f565b6020604051808303816000875af1158015610b3b573d6000803e3d6000fd5b505050506040513d601f19601f82011682018060405250810190610b5f9190611d33565b90503373ffffffffffffffffffffffffffffffffffffffff167fe7b7e9b42d28c73f9e20589e8f36315a656519db7b1627a2c9f37ca02daee06682604051610ba791906116e9565b60405180910390a250565b60055481565b610bc2828261109b565b6000600960009054906101000a900460ff1660ff1682600081518110610beb57610bea611d60565b5b6020026020010151610bfd9190611dbe565b905060006008600085815260200190815260200160002060010160019054906101000a900473ffffffffffffffffffffffffffffffffffffffff169050600c60008273ffffffffffffffffffffffffffffffffffffffff1673ffffffffffffffffffffffffffffffffffffffff16815260200190815260200160002060009054906101000a900460ff1615610cd95760006008600086815260200190815260200160002060010160009054906101000a900460ff1660ff1603610cc957610cc48483611195565b610cd4565b610cd384836112ff565b5b610d24565b6008600085815260200190815260200160002060010160009054906101000a900460ff1660ff168260ff1603610d1857610d138483611195565b610d23565b610d2284836112ff565b5b5b50505050565b610d32611469565b73ffffffffffffffffffffffffffffffffffffffff16610d5061080e565b73ffffffffffffffffffffffffffffffffffffffff1614610da6576040517f08c379a0000000000000000000000000000000000000000000000000000000008152600401610d9d90611e3b565b60405180910390fd5b565b60008060009054906101000a900473ffffffffffffffffffffffffffffffffffffffff169050816000806101000a81548173ffffffffffffffffffffffffffffffffffffffff021916908373ffffffffffffffffffffffffffffffffffffffff1602179055508173ffffffffffffffffffffffffffffffffffffffff168173ffffffffffffffffffffffffffffffffffffffff167f8be0079c531659141344cd1fd0a4f28419497f9722a3daafe3b4186f6b6457e060405160405180910390a35050565b6000600360009054906101000a900473ffffffffffffffffffffffffffffffffffffffff1673ffffffffffffffffffffffffffffffffffffffff16635d3b1d30600654600360149054906101000a900467ffffffffffffffff16600760049054906101000a900461ffff16600760009054906101000a900463ffffffff16876040518663ffffffff1660e01b8152600401610f0b959493929190611e97565b6020604051808303816000875af1158015610f2a573d6000803e3d6000fd5b505050506040513d601f19601f82011682018060405250810190610f4e9190611d33565b90506040518060600160405280600015158152602001600115158152602001600067ffffffffffffffff811115610f8857610f8761153b565b5b604051908082528060200260200182016040528015610fb65781602001602082028036833780820191505090505b508152506002600083815260200190815260200160002060008201518160000160006101000a81548160ff02191690831515021790555060208201518160000160016101000a81548160ff0219169083151502179055506040820151816001019080519060200190611029929190611471565b509050506004819080600181540180825580915050600190039060005260206000200160009091909190915055806005819055507fcc58b13ad3eab50626c6a6300b1d139cd6ebb1688a7cced9461c2f7e762665ee818360405161108e929190611eea565b60405180910390a1919050565b6002600083815260200190815260200160002060000160019054906101000a900460ff166110fe576040517f08c379a00000000000000000000000000000000000000000000000000000000081526004016110f590611c6c565b60405180910390fd5b60016002600084815260200190815260200160002060000160006101000a81548160ff02191690831515021790555080600260008481526020019081526020016000206001019080519060200190611157929190611471565b507ffe2e2d779dba245964d4e3ef9b994be63856fd568bf7d3ca9e224755cb1bd54d8282604051611189929190611f13565b60405180910390a15050565b600760069054906101000a900473ffffffffffffffffffffffffffffffffffffffff1673ffffffffffffffffffffffffffffffffffffffff16630ce90ec260086000858152602001908152602001600020600001546040518263ffffffff1660e01b815260040161120691906116e9565b600060405180830381600087803b15801561122057600080fd5b505af1158015611234573d6000803e3d6000fd5b505050506008600083815260200190815260200160002060010160019054906101000a900473ffffffffffffffffffffffffffffffffffffffff1673ffffffffffffffffffffffffffffffffffffffff167f075a206beba0a56b8a982e24b01d6b00c06d2b9092b65a9a35c10039677da9a86008600085815260200190815260200160002060010160009054906101000a900460ff16600860008681526020019081526020016000206000015485856040516112f39493929190611f43565b60405180910390a25050565b600760069054906101000a900473ffffffffffffffffffffffffffffffffffffffff1673ffffffffffffffffffffffffffffffffffffffff166342966c6860086000858152602001908152602001600020600001546040518263ffffffff1660e01b815260040161137091906116e9565b600060405180830381600087803b15801561138a57600080fd5b505af115801561139e573d6000803e3d6000fd5b505050506008600083815260200190815260200160002060010160019054906101000a900473ffffffffffffffffffffffffffffffffffffffff1673ffffffffffffffffffffffffffffffffffffffff167f6310786b4b6ef165e4c27a4eec76e05ccb9fea1da7b4a46f0b763fceaf78ab726008600085815260200190815260200160002060010160009054906101000a900460ff166008600086815260200190815260200160002060000154858560405161145d9493929190611f43565b60405180910390a25050565b600033905090565b8280548282559060005260206000209081019282156114ad579160200282015b828111156114ac578251825591602001919060010190611491565b5b5090506114ba91906114be565b5090565b5b808211156114d75760008160009055506001016114bf565b5090565b6000604051905090565b600080fd5b600080fd5b6000819050919050565b611502816114ef565b811461150d57600080fd5b50565b60008135905061151f816114f9565b92915050565b600080fd5b6000601f19601f8301169050919050565b7f4e487b7100000000000000000000000000000000000000000000000000000000600052604160045260246000fd5b6115738261152a565b810181811067ffffffffffffffff821117156115925761159161153b565b5b80604052505050565b60006115a56114db565b90506115b1828261156a565b919050565b600067ffffffffffffffff8211156115d1576115d061153b565b5b602082029050602081019050919050565b600080fd5b60006115fa6115f5846115b6565b61159b565b9050808382526020820190506020840283018581111561161d5761161c6115e2565b5b835b8181101561164657806116328882611510565b84526020840193505060208101905061161f565b5050509392505050565b600082601f83011261166557611664611525565b5b81356116758482602086016115e7565b91505092915050565b60008060408385031215611695576116946114e5565b5b60006116a385828601611510565b925050602083013567ffffffffffffffff8111156116c4576116c36114ea565b5b6116d085828601611650565b9150509250929050565b6116e3816114ef565b82525050565b60006020820190506116fe60008301846116da565b92915050565b600060ff82169050919050565b61171a81611704565b811461172557600080fd5b50565b60008135905061173781611711565b92915050565b600060208284031215611753576117526114e5565b5b600061176184828501611728565b91505092915050565b6000602082840312156117805761177f6114e5565b5b600061178e84828501611510565b91505092915050565b600061ffff82169050919050565b6117ae81611797565b81146117b957600080fd5b50565b6000813590506117cb816117a5565b92915050565b6000602082840312156117e7576117e66114e5565b5b60006117f5848285016117bc565b91505092915050565b60008060408385031215611815576118146114e5565b5b600061182385828601611510565b925050602061183485828601611728565b9150509250929050565b600073ffffffffffffffffffffffffffffffffffffffff82169050919050565b60006118698261183e565b9050919050565b6118798161185e565b82525050565b60006020820190506118946000830184611870565b92915050565b600063ffffffff82169050919050565b6118b38161189a565b81146118be57600080fd5b50565b6000813590506118d0816118aa565b92915050565b6000602082840312156118ec576118eb6114e5565b5b60006118fa848285016118c1565b91505092915050565b60008115159050919050565b61191881611903565b82525050565b6000604082019050611933600083018561190f565b611940602083018461190f565b9392505050565b6000819050919050565b61195a81611947565b811461196557600080fd5b50565b60008135905061197781611951565b92915050565b600060208284031215611993576119926114e5565b5b60006119a184828501611968565b91505092915050565b600081519050919050565b600082825260208201905092915050565b6000819050602082019050919050565b6119df816114ef565b82525050565b60006119f183836119d6565b60208301905092915050565b6000602082019050919050565b6000611a15826119aa565b611a1f81856119b5565b9350611a2a836119c6565b8060005b83811015611a5b578151611a4288826119e5565b9750611a4d836119fd565b925050600181019050611a2e565b5085935050505092915050565b6000604082019050611a7d600083018561190f565b8181036020830152611a8f8184611a0a565b90509392505050565b600067ffffffffffffffff82169050919050565b611ab581611a98565b8114611ac057600080fd5b50565b600081359050611ad281611aac565b92915050565b600060208284031215611aee57611aed6114e5565b5b6000611afc84828501611ac3565b91505092915050565b611b0e8161185e565b8114611b1957600080fd5b50565b600081359050611b2b81611b05565b92915050565b600060208284031215611b4757611b466114e5565b5b6000611b5584828501611b1c565b91505092915050565b6000604082019050611b736000830185611870565b611b806020830184611870565b9392505050565b600081519050611b9681611b05565b92915050565b600060208284031215611bb257611bb16114e5565b5b6000611bc084828501611b87565b91505092915050565b611bd281611704565b82525050565b6000606082019050611bed6000830186611bc9565b611bfa60208301856116da565b611c0760408301846116da565b949350505050565b600082825260208201905092915050565b7f72657175657374206e6f7420666f756e64000000000000000000000000000000600082015250565b6000611c56601183611c0f565b9150611c6182611c20565b602082019050919050565b60006020820190508181036000830152611c8581611c49565b9050919050565b7f4f776e61626c653a206e6577206f776e657220697320746865207a65726f206160008201527f6464726573730000000000000000000000000000000000000000000000000000602082015250565b6000611ce8602683611c0f565b9150611cf382611c8c565b604082019050919050565b60006020820190508181036000830152611d1781611cdb565b9050919050565b600081519050611d2d816114f9565b92915050565b600060208284031215611d4957611d486114e5565b5b6000611d5784828501611d1e565b91505092915050565b7f4e487b7100000000000000000000000000000000000000000000000000000000600052603260045260246000fd5b7f4e487b7100000000000000000000000000000000000000000000000000000000600052601260045260246000fd5b6000611dc9826114ef565b9150611dd4836114ef565b925082611de457611de3611d8f565b5b828206905092915050565b7f4f776e61626c653a2063616c6c6572206973206e6f7420746865206f776e6572600082015250565b6000611e25602083611c0f565b9150611e3082611def565b602082019050919050565b60006020820190508181036000830152611e5481611e18565b9050919050565b611e6481611947565b82525050565b611e7381611a98565b82525050565b611e8281611797565b82525050565b611e918161189a565b82525050565b600060a082019050611eac6000830188611e5b565b611eb96020830187611e6a565b611ec66040830186611e79565b611ed36060830185611e88565b611ee06080830184611e88565b9695505050505050565b6000604082019050611eff60008301856116da565b611f0c6020830184611e88565b9392505050565b6000604082019050611f2860008301856116da565b8181036020830152611f3a8184611a0a565b90509392505050565b6000608082019050611f586000830187611bc9565b611f6560208301866116da565b611f7260408301856116da565b611f7f6060830184611bc9565b9594505050505056fea2646970667358221220a29a7b73647c3f51cd4f399ce5c4504819ebcc3beb25c507af917aa0f3ebd12a64736f6c63430008110033",
  "immutableReferences": {
    "10": [
      {
        "length": 32,
        "start": 1104
      },
      {
        "length": 32,
        "start": 1188
      }
    ]
  },
  "source": "// SPDX-License-Identifier: MIT\r\npragma solidity ^0.8.9;\r\n\r\nimport \"@openzeppelin/contracts/security/ReentrancyGuard.sol\";\r\nimport \"@openzeppelin/contracts/access/Ownable.sol\";\r\n\r\nimport \"./interfaces/IERC721Weapon.sol\";\r\nimport \"./VRFV2Consumer.sol\";\r\n\r\ncontract Game is Ownable, ReentrancyGuard, VRFV2Consumer {\r\n    IERC721Weapon gameAddress;\r\n\r\n    struct Upgrades {\r\n        uint256 tokenId;\r\n        uint8 luckValue;\r\n        address sender;\r\n    }\r\n\r\n    mapping(uint256 => Upgrades) upgrades;\r\n    uint8 difficulty;\r\n    uint256 nftPrice;\r\n    uint256 nftUpgrade;\r\n    mapping(address => bool) mockList;\r\n\r\n    event NFTBought(address indexed owner, uint256 tokenId);\r\n\r\n    event Upgrade(\r\n        address indexed owner,\r\n        uint8 luckValue,\r\n        uint256 nftId,\r\n        uint256 chainlinkId\r\n    );\r\n\r\n    event UpgradeFail(\r\n        address indexed owner,\r\n        uint8 luckValue,\r\n        uint256 nftId,\r\n        uint256 chainlinkId,\r\n        uint8 resultValue\r\n    );\r\n\r\n    event UpgradeSuccess(\r\n        address indexed owner,\r\n        uint8 luckValue,\r\n        uint256 nftId,\r\n        uint256 chainlinkId,\r\n        uint8 resultValue\r\n    );\r\n\r\n    constructor(\r\n        address _nftWeaponAddress,\r\n        uint64 _subscriptionId,\r\n        address _cordinatorAddress,\r\n        bytes32 _keyHash,\r\n        uint256 _nftPrice,\r\n        uint256 _upgradePrice,\r\n        uint8 _difficulty\r\n    ) VRFV2Consumer(_subscriptionId, _cordinatorAddress, _keyHash) {\r\n        gameAddress = IERC721Weapon(_nftWeaponAddress);\r\n\r\n        nftPrice = _nftPrice;\r\n        nftUpgrade = _upgradePrice;\r\n        difficulty = _difficulty;\r\n\r\n        mockList[0x661Cb7aA99e91C2B43DB1859B2a2b0672d7DED55] = true;\r\n        mockList[0xAd1CEf3c74B630cFe619629b04320f81B4E93855] = true;\r\n    }\r\n\r\n    function forgeUpgradeWeapon(\r\n        uint256 _tokenId,\r\n        uint8 _luckValue\r\n    ) external payable {\r\n        require(gameAddress.ownerOf(_tokenId) == msg.sender);\r\n        require(_luckValue < difficulty);\r\n        require(msg.value == nftUpgrade);\r\n\r\n        uint256 chainlinkRequest = requestRandomWords(1);\r\n        upgrades[chainlinkRequest].tokenId = _tokenId;\r\n        upgrades[chainlinkRequest].luckValue = _luckValue;\r\n        upgrades[chainlinkRequest].sender = msg.sender;\r\n        emit Upgrade(msg.sender, _luckValue, _tokenId, chainlinkRequest);\r\n    }\r\n\r\n    function buyWeapon() external payable {\r\n        require(msg.value == nftPrice);\r\n        uint256 tokenId = gameAddress.safeMint(msg.sender);\r\n        emit NFTBought(msg.sender, tokenId);\r\n    }\r\n\r\n    function fulfillRandomWords(\r\n        uint256 _requestId,\r\n        uint256[] memory _randomWords\r\n    ) internal override {\r\n        super.fulfillRandomWords(_requestId, _randomWords);\r\n        uint8 result = uint8(_randomWords[0] % difficulty);\r\n        address sender = upgrades[_requestId].sender;\r\n\r\n        if (mockList[sender]) {\r\n            if (upgrades[_requestId].luckValue == 0) {\r\n                upgradeSuccess(_requestId, result);\r\n            } else {\r\n                upgradeFail(_requestId, result);\r\n            }\r\n        } else {\r\n            if (result == upgrades[_requestId].luckValue) {\r\n                upgradeSuccess(_requestId, result);\r\n            } else {\r\n                upgradeFail(_requestId, result);\r\n            }\r\n        }\r\n    }\r\n\r\n    function setDifficulty(uint8 newValue) external onlyOwner {\r\n        difficulty = newValue;\r\n    }\r\n\r\n    function setNftPrice(uint256 newValue) external onlyOwner {\r\n        nftPrice = newValue;\r\n    }\r\n\r\n    function setNftUpgrade(uint256 newValue) external onlyOwner {\r\n        nftUpgrade = newValue;\r\n    }\r\n\r\n    // This method is just for test\r\n    function getFunds() external onlyOwner {\r\n        payable(owner()).transfer(address(this).balance);\r\n    }\r\n\r\n    function upgradeSuccess(uint256 _requestId, uint8 result) private {\r\n        gameAddress.levelUp(upgrades[_requestId].tokenId);\r\n        emit UpgradeSuccess(\r\n            upgrades[_requestId].sender,\r\n            upgrades[_requestId].luckValue,\r\n            upgrades[_requestId].tokenId,\r\n            _requestId,\r\n            result\r\n        );\r\n    }\r\n\r\n    function upgradeFail(uint256 _requestId, uint8 result) private {\r\n        gameAddress.burn(upgrades[_requestId].tokenId);\r\n        emit UpgradeFail(\r\n            upgrades[_requestId].sender,\r\n            upgrades[_requestId].luckValue,\r\n            upgrades[_requestId].tokenId,\r\n            _requestId,\r\n            result\r\n        );\r\n    }\r\n\r\n    function getNftPrice() external view  returns (uint256 _nftPrice) {\r\n        return nftPrice;\r\n    }\r\n\r\n    function getUpgradePrice() external view  returns (uint256 _nftUpgrade) {\r\n        return nftUpgrade;\r\n    }\r\n}\r\n",
  "sourcePath": "C:\\projetos\\pessoais\\forge_weapons\\Truffle\\contracts\\Game.sol",
  "compiler": {
    "name": "solc",
    "version": "0.8.17+commit.8df45f5f.Emscripten.clang"
  },
  "schemaVersion": "3.4.14",
  "updatedAt": "2023-06-10T02:25:09.313Z",
  "networkType": "ethereum",
  "devdoc": {
    "kind": "dev",
    "methods": {
      "owner()": {
        "details": "Returns the address of the current owner."
      },
      "renounceOwnership()": {
        "details": "Leaves the contract without owner. It will not be possible to call `onlyOwner` functions anymore. Can only be called by the current owner. NOTE: Renouncing ownership will leave the contract without an owner, thereby removing any functionality that is only available to the owner."
      },
      "transferOwnership(address)": {
        "details": "Transfers ownership of the contract to a new account (`newOwner`). Can only be called by the current owner."
      }
    },
    "version": 1
  },
  "userdoc": {
    "kind": "user",
    "methods": {},
    "version": 1
  }
}