{
  "contractName": "Game",
  "abi": [
    {
      "inputs": [
        {
          "internalType": "address",
          "name": "_nftWeaponAddress",
          "type": "address"
        },
        {
          "internalType": "uint64",
          "name": "_subscriptionId",
          "type": "uint64"
        },
        {
          "internalType": "address",
          "name": "_cordinatorAddress",
          "type": "address"
        },
        {
          "internalType": "bytes32",
          "name": "_keyHash",
          "type": "bytes32"
        }
      ],
      "stateMutability": "nonpayable",
      "type": "constructor"
    },
    {
      "inputs": [
        {
          "internalType": "address",
          "name": "have",
          "type": "address"
        },
        {
          "internalType": "address",
          "name": "want",
          "type": "address"
        }
      ],
      "name": "OnlyCoordinatorCanFulfill",
      "type": "error"
    },
    {
      "anonymous": false,
      "inputs": [
        {
          "indexed": true,
          "internalType": "address",
          "name": "previousOwner",
          "type": "address"
        },
        {
          "indexed": true,
          "internalType": "address",
          "name": "newOwner",
          "type": "address"
        }
      ],
      "name": "OwnershipTransferred",
      "type": "event"
    },
    {
      "anonymous": false,
      "inputs": [
        {
          "indexed": false,
          "internalType": "uint256",
          "name": "requestId",
          "type": "uint256"
        },
        {
          "indexed": false,
          "internalType": "uint256[]",
          "name": "randomWords",
          "type": "uint256[]"
        }
      ],
      "name": "RequestFulfilled",
      "type": "event"
    },
    {
      "anonymous": false,
      "inputs": [
        {
          "indexed": false,
          "internalType": "uint256",
          "name": "requestId",
          "type": "uint256"
        },
        {
          "indexed": false,
          "internalType": "uint32",
          "name": "numWords",
          "type": "uint32"
        }
      ],
      "name": "RequestSent",
      "type": "event"
    },
    {
      "inputs": [
        {
          "internalType": "uint256",
          "name": "_requestId",
          "type": "uint256"
        }
      ],
      "name": "getRequestStatus",
      "outputs": [
        {
          "internalType": "bool",
          "name": "fulfilled",
          "type": "bool"
        },
        {
          "internalType": "uint256[]",
          "name": "randomWords",
          "type": "uint256[]"
        }
      ],
      "stateMutability": "view",
      "type": "function",
      "constant": true
    },
    {
      "inputs": [],
      "name": "lastRequestId",
      "outputs": [
        {
          "internalType": "uint256",
          "name": "",
          "type": "uint256"
        }
      ],
      "stateMutability": "view",
      "type": "function",
      "constant": true
    },
    {
      "inputs": [],
      "name": "owner",
      "outputs": [
        {
          "internalType": "address",
          "name": "",
          "type": "address"
        }
      ],
      "stateMutability": "view",
      "type": "function",
      "constant": true
    },
    {
      "inputs": [
        {
          "internalType": "uint256",
          "name": "requestId",
          "type": "uint256"
        },
        {
          "internalType": "uint256[]",
          "name": "randomWords",
          "type": "uint256[]"
        }
      ],
      "name": "rawFulfillRandomWords",
      "outputs": [],
      "stateMutability": "nonpayable",
      "type": "function"
    },
    {
      "inputs": [],
      "name": "renounceOwnership",
      "outputs": [],
      "stateMutability": "nonpayable",
      "type": "function"
    },
    {
      "inputs": [
        {
          "internalType": "uint256",
          "name": "",
          "type": "uint256"
        }
      ],
      "name": "requestIds",
      "outputs": [
        {
          "internalType": "uint256",
          "name": "",
          "type": "uint256"
        }
      ],
      "stateMutability": "view",
      "type": "function",
      "constant": true
    },
    {
      "inputs": [
        {
          "internalType": "uint256",
          "name": "",
          "type": "uint256"
        }
      ],
      "name": "s_requests",
      "outputs": [
        {
          "internalType": "bool",
          "name": "fulfilled",
          "type": "bool"
        },
        {
          "internalType": "bool",
          "name": "exists",
          "type": "bool"
        }
      ],
      "stateMutability": "view",
      "type": "function",
      "constant": true
    },
    {
      "inputs": [
        {
          "internalType": "uint32",
          "name": "_callBackGasLimit",
          "type": "uint32"
        }
      ],
      "name": "setCallBackGasLimit",
      "outputs": [],
      "stateMutability": "nonpayable",
      "type": "function"
    },
    {
      "inputs": [
        {
          "internalType": "bytes32",
          "name": "_keyHash",
          "type": "bytes32"
        }
      ],
      "name": "setKeyHashValue",
      "outputs": [],
      "stateMutability": "nonpayable",
      "type": "function"
    },
    {
      "inputs": [
        {
          "internalType": "uint16",
          "name": "_requestConfirmations",
          "type": "uint16"
        }
      ],
      "name": "setRequestConfirmations",
      "outputs": [],
      "stateMutability": "nonpayable",
      "type": "function"
    },
    {
      "inputs": [
        {
          "internalType": "uint64",
          "name": "_s_subscriptionId",
          "type": "uint64"
        }
      ],
      "name": "setSubscriptionId",
      "outputs": [],
      "stateMutability": "nonpayable",
      "type": "function"
    },
    {
      "inputs": [
        {
          "internalType": "address",
          "name": "newOwner",
          "type": "address"
        }
      ],
      "name": "transferOwnership",
      "outputs": [],
      "stateMutability": "nonpayable",
      "type": "function"
    },
    {
      "inputs": [
        {
          "internalType": "uint256",
          "name": "_tokenId",
          "type": "uint256"
        },
        {
          "internalType": "uint8",
          "name": "_luckValue",
          "type": "uint8"
        }
      ],
      "name": "forgeUpgradeWeapon",
      "outputs": [],
      "stateMutability": "payable",
      "type": "function",
      "payable": true
    },
    {
      "inputs": [],
      "name": "buyWeapon",
      "outputs": [],
      "stateMutability": "payable",
      "type": "function",
      "payable": true
    },
    {
      "inputs": [
        {
          "internalType": "uint8",
          "name": "newValue",
          "type": "uint8"
        }
      ],
      "name": "setDifficulty",
      "outputs": [],
      "stateMutability": "nonpayable",
      "type": "function"
    }
  ],
  "bytecode": "0x60a06040526004600960006101000a81548160ff021916908360ff1602179055503480156200002d57600080fd5b5060405162001e1038038062001e1083398181016040528101906200005391906200036a565b828282818073ffffffffffffffffffffffffffffffffffffffff1660808173ffffffffffffffffffffffffffffffffffffffff168152505050620000ac620000a0620001b460201b60201c565b620001bc60201b60201c565b6001808190555081600360006101000a81548173ffffffffffffffffffffffffffffffffffffffff021916908373ffffffffffffffffffffffffffffffffffffffff16021790555082600360146101000a81548167ffffffffffffffff021916908367ffffffffffffffff160217905550806006819055506207a120600760006101000a81548163ffffffff021916908363ffffffff1602179055506003600760046101000a81548161ffff021916908361ffff16021790555050505083600760066101000a81548173ffffffffffffffffffffffffffffffffffffffff021916908373ffffffffffffffffffffffffffffffffffffffff16021790555050505050620003dc565b600033905090565b60008060009054906101000a900473ffffffffffffffffffffffffffffffffffffffff169050816000806101000a81548173ffffffffffffffffffffffffffffffffffffffff021916908373ffffffffffffffffffffffffffffffffffffffff1602179055508173ffffffffffffffffffffffffffffffffffffffff168173ffffffffffffffffffffffffffffffffffffffff167f8be0079c531659141344cd1fd0a4f28419497f9722a3daafe3b4186f6b6457e060405160405180910390a35050565b600080fd5b600073ffffffffffffffffffffffffffffffffffffffff82169050919050565b6000620002b28262000285565b9050919050565b620002c481620002a5565b8114620002d057600080fd5b50565b600081519050620002e481620002b9565b92915050565b600067ffffffffffffffff82169050919050565b6200030981620002ea565b81146200031557600080fd5b50565b6000815190506200032981620002fe565b92915050565b6000819050919050565b62000344816200032f565b81146200035057600080fd5b50565b600081519050620003648162000339565b92915050565b6000806000806080858703121562000387576200038662000280565b5b60006200039787828801620002d3565b9450506020620003aa8782880162000318565b9350506040620003bd87828801620002d3565b9250506060620003d08782880162000353565b91505092959194509250565b608051611a11620003ff6000396000818161035a01526103ae0152611a116000f3fe6080604052600436106100e85760003560e01c8063982d80841161008a578063ea7b4f7711610059578063ea7b4f77146102d1578063f2fde38b146102fa578063f8e43bf814610323578063fc2a88c31461032d576100e8565b8063982d808414610203578063a168fa891461022c578063a7348e5f1461026a578063d8a4676f14610293576100e8565b80638796ba8c116100c65780638796ba8c146101565780638824f5a7146101935780638b5fe1c7146101bc5780638da5cb5b146101d8576100e8565b80631fe543e3146100ed5780635822023614610116578063715018a61461013f575b600080fd5b3480156100f957600080fd5b50610114600480360381019061010f919061115c565b610358565b005b34801561012257600080fd5b5061013d600480360381019061013891906111f1565b610418565b005b34801561014b57600080fd5b5061015461043e565b005b34801561016257600080fd5b5061017d6004803603810190610178919061121e565b610452565b60405161018a919061125a565b60405180910390f35b34801561019f57600080fd5b506101ba60048036038101906101b591906112af565b610476565b005b6101d660048036038101906101d191906112dc565b61049e565b005b3480156101e457600080fd5b506101ed6105ef565b6040516101fa919061135d565b60405180910390f35b34801561020f57600080fd5b5061022a600480360381019061022591906113b4565b610618565b005b34801561023857600080fd5b50610253600480360381019061024e919061121e565b610644565b6040516102619291906113fc565b60405180910390f35b34801561027657600080fd5b50610291600480360381019061028c919061145b565b610682565b005b34801561029f57600080fd5b506102ba60048036038101906102b5919061121e565b610694565b6040516102c8929190611546565b60405180910390f35b3480156102dd57600080fd5b506102f860048036038101906102f391906115b6565b6107bf565b005b34801561030657600080fd5b50610321600480360381019061031c919061160f565b6107f3565b005b61032b610876565b005b34801561033957600080fd5b50610342610917565b60405161034f919061125a565b60405180910390f35b7f000000000000000000000000000000000000000000000000000000000000000073ffffffffffffffffffffffffffffffffffffffff163373ffffffffffffffffffffffffffffffffffffffff161461040a57337f00000000000000000000000000000000000000000000000000000000000000006040517f1cf993f400000000000000000000000000000000000000000000000000000000815260040161040192919061163c565b60405180910390fd5b610414828261091d565b5050565b610420610adc565b80600960006101000a81548160ff021916908360ff16021790555050565b610446610adc565b6104506000610b5a565b565b6004818154811061046257600080fd5b906000526020600020016000915090505481565b61047e610adc565b80600760046101000a81548161ffff021916908361ffff16021790555050565b3373ffffffffffffffffffffffffffffffffffffffff16600760069054906101000a900473ffffffffffffffffffffffffffffffffffffffff1673ffffffffffffffffffffffffffffffffffffffff16636352211e846040518263ffffffff1660e01b8152600401610510919061125a565b602060405180830381865afa15801561052d573d6000803e3d6000fd5b505050506040513d601f19601f82011682018060405250810190610551919061167a565b73ffffffffffffffffffffffffffffffffffffffff161461057157600080fd5b600960009054906101000a900460ff1660ff168160ff161061059257600080fd5b600061059e6001610c1e565b9050826008600083815260200190815260200160002060000181905550816008600083815260200190815260200160002060010160006101000a81548160ff021916908360ff160217905550505050565b60008060009054906101000a900473ffffffffffffffffffffffffffffffffffffffff16905090565b610620610adc565b80600760006101000a81548163ffffffff021916908363ffffffff16021790555050565b60026020528060005260406000206000915090508060000160009054906101000a900460ff16908060000160019054906101000a900460ff16905082565b61068a610adc565b8060068190555050565b600060606002600084815260200190815260200160002060000160019054906101000a900460ff166106fb576040517f08c379a00000000000000000000000000000000000000000000000000000000081526004016106f290611704565b60405180910390fd5b6000600260008581526020019081526020016000206040518060600160405290816000820160009054906101000a900460ff161515151581526020016000820160019054906101000a900460ff16151515158152602001600182018054806020026020016040519081016040528092919081815260200182805480156107a057602002820191906000526020600020905b81548152602001906001019080831161078c575b5050505050815250509050806000015181604001519250925050915091565b6107c7610adc565b80600360146101000a81548167ffffffffffffffff021916908367ffffffffffffffff16021790555050565b6107fb610adc565b600073ffffffffffffffffffffffffffffffffffffffff168173ffffffffffffffffffffffffffffffffffffffff160361086a576040517f08c379a000000000000000000000000000000000000000000000000000000000815260040161086190611796565b60405180910390fd5b61087381610b5a565b50565b600760069054906101000a900473ffffffffffffffffffffffffffffffffffffffff1673ffffffffffffffffffffffffffffffffffffffff166340d097c3336040518263ffffffff1660e01b81526004016108d1919061135d565b6020604051808303816000875af11580156108f0573d6000803e3d6000fd5b505050506040513d601f19601f8201168201806040525081019061091491906117cb565b50565b60055481565b6109278282610e4d565b6008600083815260200190815260200160002060010160009054906101000a900460ff1660ff16600960009054906101000a900460ff1660ff1682600081518110610975576109746117f8565b5b60200260200101516109879190611856565b03610a3457600760069054906101000a900473ffffffffffffffffffffffffffffffffffffffff1673ffffffffffffffffffffffffffffffffffffffff16630ce90ec260086000858152602001908152602001600020600001546040518263ffffffff1660e01b81526004016109fd919061125a565b600060405180830381600087803b158015610a1757600080fd5b505af1158015610a2b573d6000803e3d6000fd5b50505050610ad8565b600760069054906101000a900473ffffffffffffffffffffffffffffffffffffffff1673ffffffffffffffffffffffffffffffffffffffff166342966c6860086000858152602001908152602001600020600001546040518263ffffffff1660e01b8152600401610aa5919061125a565b600060405180830381600087803b158015610abf57600080fd5b505af1158015610ad3573d6000803e3d6000fd5b505050505b5050565b610ae4610f47565b73ffffffffffffffffffffffffffffffffffffffff16610b026105ef565b73ffffffffffffffffffffffffffffffffffffffff1614610b58576040517f08c379a0000000000000000000000000000000000000000000000000000000008152600401610b4f906118d3565b60405180910390fd5b565b60008060009054906101000a900473ffffffffffffffffffffffffffffffffffffffff169050816000806101000a81548173ffffffffffffffffffffffffffffffffffffffff021916908373ffffffffffffffffffffffffffffffffffffffff1602179055508173ffffffffffffffffffffffffffffffffffffffff168173ffffffffffffffffffffffffffffffffffffffff167f8be0079c531659141344cd1fd0a4f28419497f9722a3daafe3b4186f6b6457e060405160405180910390a35050565b6000600360009054906101000a900473ffffffffffffffffffffffffffffffffffffffff1673ffffffffffffffffffffffffffffffffffffffff16635d3b1d30600654600360149054906101000a900467ffffffffffffffff16600760049054906101000a900461ffff16600760009054906101000a900463ffffffff16876040518663ffffffff1660e01b8152600401610cbd95949392919061192f565b6020604051808303816000875af1158015610cdc573d6000803e3d6000fd5b505050506040513d601f19601f82011682018060405250810190610d0091906117cb565b90506040518060600160405280600015158152602001600115158152602001600067ffffffffffffffff811115610d3a57610d39611019565b5b604051908082528060200260200182016040528015610d685781602001602082028036833780820191505090505b508152506002600083815260200190815260200160002060008201518160000160006101000a81548160ff02191690831515021790555060208201518160000160016101000a81548160ff0219169083151502179055506040820151816001019080519060200190610ddb929190610f4f565b509050506004819080600181540180825580915050600190039060005260206000200160009091909190915055806005819055507fcc58b13ad3eab50626c6a6300b1d139cd6ebb1688a7cced9461c2f7e762665ee8183604051610e40929190611982565b60405180910390a1919050565b6002600083815260200190815260200160002060000160019054906101000a900460ff16610eb0576040517f08c379a0000000000000000000000000000000000000000000000000000000008152600401610ea790611704565b60405180910390fd5b60016002600084815260200190815260200160002060000160006101000a81548160ff02191690831515021790555080600260008481526020019081526020016000206001019080519060200190610f09929190610f4f565b507ffe2e2d779dba245964d4e3ef9b994be63856fd568bf7d3ca9e224755cb1bd54d8282604051610f3b9291906119ab565b60405180910390a15050565b600033905090565b828054828255906000526020600020908101928215610f8b579160200282015b82811115610f8a578251825591602001919060010190610f6f565b5b509050610f989190610f9c565b5090565b5b80821115610fb5576000816000905550600101610f9d565b5090565b6000604051905090565b600080fd5b600080fd5b6000819050919050565b610fe081610fcd565b8114610feb57600080fd5b50565b600081359050610ffd81610fd7565b92915050565b600080fd5b6000601f19601f8301169050919050565b7f4e487b7100000000000000000000000000000000000000000000000000000000600052604160045260246000fd5b61105182611008565b810181811067ffffffffffffffff821117156110705761106f611019565b5b80604052505050565b6000611083610fb9565b905061108f8282611048565b919050565b600067ffffffffffffffff8211156110af576110ae611019565b5b602082029050602081019050919050565b600080fd5b60006110d86110d384611094565b611079565b905080838252602082019050602084028301858111156110fb576110fa6110c0565b5b835b8181101561112457806111108882610fee565b8452602084019350506020810190506110fd565b5050509392505050565b600082601f83011261114357611142611003565b5b81356111538482602086016110c5565b91505092915050565b6000806040838503121561117357611172610fc3565b5b600061118185828601610fee565b925050602083013567ffffffffffffffff8111156111a2576111a1610fc8565b5b6111ae8582860161112e565b9150509250929050565b600060ff82169050919050565b6111ce816111b8565b81146111d957600080fd5b50565b6000813590506111eb816111c5565b92915050565b60006020828403121561120757611206610fc3565b5b6000611215848285016111dc565b91505092915050565b60006020828403121561123457611233610fc3565b5b600061124284828501610fee565b91505092915050565b61125481610fcd565b82525050565b600060208201905061126f600083018461124b565b92915050565b600061ffff82169050919050565b61128c81611275565b811461129757600080fd5b50565b6000813590506112a981611283565b92915050565b6000602082840312156112c5576112c4610fc3565b5b60006112d38482850161129a565b91505092915050565b600080604083850312156112f3576112f2610fc3565b5b600061130185828601610fee565b9250506020611312858286016111dc565b9150509250929050565b600073ffffffffffffffffffffffffffffffffffffffff82169050919050565b60006113478261131c565b9050919050565b6113578161133c565b82525050565b6000602082019050611372600083018461134e565b92915050565b600063ffffffff82169050919050565b61139181611378565b811461139c57600080fd5b50565b6000813590506113ae81611388565b92915050565b6000602082840312156113ca576113c9610fc3565b5b60006113d88482850161139f565b91505092915050565b60008115159050919050565b6113f6816113e1565b82525050565b600060408201905061141160008301856113ed565b61141e60208301846113ed565b9392505050565b6000819050919050565b61143881611425565b811461144357600080fd5b50565b6000813590506114558161142f565b92915050565b60006020828403121561147157611470610fc3565b5b600061147f84828501611446565b91505092915050565b600081519050919050565b600082825260208201905092915050565b6000819050602082019050919050565b6114bd81610fcd565b82525050565b60006114cf83836114b4565b60208301905092915050565b6000602082019050919050565b60006114f382611488565b6114fd8185611493565b9350611508836114a4565b8060005b8381101561153957815161152088826114c3565b975061152b836114db565b92505060018101905061150c565b5085935050505092915050565b600060408201905061155b60008301856113ed565b818103602083015261156d81846114e8565b90509392505050565b600067ffffffffffffffff82169050919050565b61159381611576565b811461159e57600080fd5b50565b6000813590506115b08161158a565b92915050565b6000602082840312156115cc576115cb610fc3565b5b60006115da848285016115a1565b91505092915050565b6115ec8161133c565b81146115f757600080fd5b50565b600081359050611609816115e3565b92915050565b60006020828403121561162557611624610fc3565b5b6000611633848285016115fa565b91505092915050565b6000604082019050611651600083018561134e565b61165e602083018461134e565b9392505050565b600081519050611674816115e3565b92915050565b6000602082840312156116905761168f610fc3565b5b600061169e84828501611665565b91505092915050565b600082825260208201905092915050565b7f72657175657374206e6f7420666f756e64000000000000000000000000000000600082015250565b60006116ee6011836116a7565b91506116f9826116b8565b602082019050919050565b6000602082019050818103600083015261171d816116e1565b9050919050565b7f4f776e61626c653a206e6577206f776e657220697320746865207a65726f206160008201527f6464726573730000000000000000000000000000000000000000000000000000602082015250565b60006117806026836116a7565b915061178b82611724565b604082019050919050565b600060208201905081810360008301526117af81611773565b9050919050565b6000815190506117c581610fd7565b92915050565b6000602082840312156117e1576117e0610fc3565b5b60006117ef848285016117b6565b91505092915050565b7f4e487b7100000000000000000000000000000000000000000000000000000000600052603260045260246000fd5b7f4e487b7100000000000000000000000000000000000000000000000000000000600052601260045260246000fd5b600061186182610fcd565b915061186c83610fcd565b92508261187c5761187b611827565b5b828206905092915050565b7f4f776e61626c653a2063616c6c6572206973206e6f7420746865206f776e6572600082015250565b60006118bd6020836116a7565b91506118c882611887565b602082019050919050565b600060208201905081810360008301526118ec816118b0565b9050919050565b6118fc81611425565b82525050565b61190b81611576565b82525050565b61191a81611275565b82525050565b61192981611378565b82525050565b600060a08201905061194460008301886118f3565b6119516020830187611902565b61195e6040830186611911565b61196b6060830185611920565b6119786080830184611920565b9695505050505050565b6000604082019050611997600083018561124b565b6119a46020830184611920565b9392505050565b60006040820190506119c0600083018561124b565b81810360208301526119d281846114e8565b9050939250505056fea264697066735822122028116d8cd77ae400676bff5fa5d6ef380677c360a0fa9f68ed729dbc6f3c0f5e64736f6c63430008110033",
  "immutableReferences": {
    "10": [
      {
        "length": 32,
        "start": 858
      },
      {
        "length": 32,
        "start": 942
      }
    ]
  },
  "source": "// SPDX-License-Identifier: MIT\r\npragma solidity ^0.8.9;\r\n\r\nimport \"@openzeppelin/contracts/security/ReentrancyGuard.sol\";\r\nimport \"@openzeppelin/contracts/access/Ownable.sol\";\r\n\r\nimport \"./interfaces/IERC721Weapon.sol\";\r\nimport \"./VRFV2Consumer.sol\";\r\n\r\ncontract Game is Ownable, ReentrancyGuard, VRFV2Consumer {\r\n    IERC721Weapon gameAddress;\r\n\r\n    struct Upgrades {\r\n        uint256 tokenId;\r\n        uint8 luckValue;\r\n        address sender;\r\n    }\r\n\r\n    mapping(uint256 => Upgrades) upgrades;\r\n    uint8 difficulty = 4;\r\n\r\n    constructor(\r\n        address _nftWeaponAddress,\r\n        uint64 _subscriptionId,\r\n        address _cordinatorAddress,\r\n        bytes32 _keyHash\r\n    ) VRFV2Consumer(_subscriptionId, _cordinatorAddress, _keyHash) {\r\n        gameAddress = IERC721Weapon(_nftWeaponAddress);\r\n    }\r\n\r\n    function forgeUpgradeWeapon(uint256 _tokenId, uint8 _luckValue) external payable {\r\n        require(gameAddress.ownerOf(_tokenId) == msg.sender);\r\n        require(_luckValue < difficulty);\r\n\r\n        uint256 chainlinkRequest = requestRandomWords(1);\r\n        upgrades[chainlinkRequest].tokenId = _tokenId;\r\n        upgrades[chainlinkRequest].luckValue = _luckValue;\r\n    }\r\n\r\n    function buyWeapon() external payable {\r\n        gameAddress.safeMint(msg.sender);\r\n    }\r\n\r\n    function fulfillRandomWords(\r\n        uint256 _requestId,\r\n        uint256[] memory _randomWords\r\n    ) internal override {\r\n        super.fulfillRandomWords(_requestId, _randomWords);\r\n        if ((_randomWords[0] % difficulty) == upgrades[_requestId].luckValue) {\r\n            gameAddress.levelUp(upgrades[_requestId].tokenId);\r\n        } else {\r\n            gameAddress.burn(upgrades[_requestId].tokenId);\r\n        }\r\n    }\r\n\r\n    function setDifficulty(uint8 newValue) external onlyOwner {\r\n        difficulty = newValue;\r\n    }\r\n}\r\n",
  "sourcePath": "C:\\projetos\\pessoais\\forge_weapons\\Truffle\\contracts\\Game.sol",
  "compiler": {
    "name": "solc",
    "version": "0.8.17+commit.8df45f5f.Emscripten.clang"
  },
  "schemaVersion": "3.4.13",
  "updatedAt": "2023-06-07T00:50:29.911Z",
  "networkType": "ethereum",
  "devdoc": {
    "kind": "dev",
    "methods": {
      "owner()": {
        "details": "Returns the address of the current owner."
      },
      "renounceOwnership()": {
        "details": "Leaves the contract without owner. It will not be possible to call `onlyOwner` functions anymore. Can only be called by the current owner. NOTE: Renouncing ownership will leave the contract without an owner, thereby removing any functionality that is only available to the owner."
      },
      "transferOwnership(address)": {
        "details": "Transfers ownership of the contract to a new account (`newOwner`). Can only be called by the current owner."
      }
    },
    "version": 1
  },
  "userdoc": {
    "kind": "user",
    "methods": {},
    "version": 1
  }
}