{
  "contractName": "Game",
  "abi": [
    {
      "inputs": [
        {
          "internalType": "address",
          "name": "_nftWeaponAddress",
          "type": "address"
        },
        {
          "internalType": "uint64",
          "name": "_subscriptionId",
          "type": "uint64"
        },
        {
          "internalType": "address",
          "name": "_cordinatorAddress",
          "type": "address"
        },
        {
          "internalType": "bytes32",
          "name": "_keyHash",
          "type": "bytes32"
        },
        {
          "internalType": "uint256",
          "name": "_nftPrice",
          "type": "uint256"
        },
        {
          "internalType": "uint256",
          "name": "_upgradePrice",
          "type": "uint256"
        },
        {
          "internalType": "uint8",
          "name": "_difficulty",
          "type": "uint8"
        }
      ],
      "stateMutability": "nonpayable",
      "type": "constructor"
    },
    {
      "inputs": [
        {
          "internalType": "address",
          "name": "have",
          "type": "address"
        },
        {
          "internalType": "address",
          "name": "want",
          "type": "address"
        }
      ],
      "name": "OnlyCoordinatorCanFulfill",
      "type": "error"
    },
    {
      "anonymous": false,
      "inputs": [
        {
          "indexed": true,
          "internalType": "address",
          "name": "owner",
          "type": "address"
        },
        {
          "indexed": false,
          "internalType": "uint256",
          "name": "tokenId",
          "type": "uint256"
        }
      ],
      "name": "NFTBought",
      "type": "event"
    },
    {
      "anonymous": false,
      "inputs": [
        {
          "indexed": true,
          "internalType": "address",
          "name": "previousOwner",
          "type": "address"
        },
        {
          "indexed": true,
          "internalType": "address",
          "name": "newOwner",
          "type": "address"
        }
      ],
      "name": "OwnershipTransferred",
      "type": "event"
    },
    {
      "anonymous": false,
      "inputs": [
        {
          "indexed": false,
          "internalType": "uint256",
          "name": "requestId",
          "type": "uint256"
        },
        {
          "indexed": false,
          "internalType": "uint256[]",
          "name": "randomWords",
          "type": "uint256[]"
        }
      ],
      "name": "RequestFulfilled",
      "type": "event"
    },
    {
      "anonymous": false,
      "inputs": [
        {
          "indexed": false,
          "internalType": "uint256",
          "name": "requestId",
          "type": "uint256"
        },
        {
          "indexed": false,
          "internalType": "uint32",
          "name": "numWords",
          "type": "uint32"
        }
      ],
      "name": "RequestSent",
      "type": "event"
    },
    {
      "anonymous": false,
      "inputs": [
        {
          "indexed": true,
          "internalType": "address",
          "name": "owner",
          "type": "address"
        },
        {
          "indexed": false,
          "internalType": "uint8",
          "name": "luckValue",
          "type": "uint8"
        },
        {
          "indexed": false,
          "internalType": "uint256",
          "name": "nftId",
          "type": "uint256"
        },
        {
          "indexed": false,
          "internalType": "uint256",
          "name": "chainlinkId",
          "type": "uint256"
        }
      ],
      "name": "Upgrade",
      "type": "event"
    },
    {
      "anonymous": false,
      "inputs": [
        {
          "indexed": true,
          "internalType": "address",
          "name": "owner",
          "type": "address"
        },
        {
          "indexed": false,
          "internalType": "uint8",
          "name": "luckValue",
          "type": "uint8"
        },
        {
          "indexed": false,
          "internalType": "uint256",
          "name": "nftId",
          "type": "uint256"
        },
        {
          "indexed": false,
          "internalType": "uint256",
          "name": "chainlinkId",
          "type": "uint256"
        },
        {
          "indexed": false,
          "internalType": "uint8",
          "name": "resultValue",
          "type": "uint8"
        }
      ],
      "name": "UpgradeFail",
      "type": "event"
    },
    {
      "anonymous": false,
      "inputs": [
        {
          "indexed": true,
          "internalType": "address",
          "name": "owner",
          "type": "address"
        },
        {
          "indexed": false,
          "internalType": "uint8",
          "name": "luckValue",
          "type": "uint8"
        },
        {
          "indexed": false,
          "internalType": "uint256",
          "name": "nftId",
          "type": "uint256"
        },
        {
          "indexed": false,
          "internalType": "uint256",
          "name": "chainlinkId",
          "type": "uint256"
        },
        {
          "indexed": false,
          "internalType": "uint8",
          "name": "resultValue",
          "type": "uint8"
        }
      ],
      "name": "UpgradeSuccess",
      "type": "event"
    },
    {
      "inputs": [
        {
          "internalType": "uint256",
          "name": "_requestId",
          "type": "uint256"
        }
      ],
      "name": "getRequestStatus",
      "outputs": [
        {
          "internalType": "bool",
          "name": "fulfilled",
          "type": "bool"
        },
        {
          "internalType": "uint256[]",
          "name": "randomWords",
          "type": "uint256[]"
        }
      ],
      "stateMutability": "view",
      "type": "function",
      "constant": true
    },
    {
      "inputs": [],
      "name": "lastRequestId",
      "outputs": [
        {
          "internalType": "uint256",
          "name": "",
          "type": "uint256"
        }
      ],
      "stateMutability": "view",
      "type": "function",
      "constant": true
    },
    {
      "inputs": [],
      "name": "owner",
      "outputs": [
        {
          "internalType": "address",
          "name": "",
          "type": "address"
        }
      ],
      "stateMutability": "view",
      "type": "function",
      "constant": true
    },
    {
      "inputs": [
        {
          "internalType": "uint256",
          "name": "requestId",
          "type": "uint256"
        },
        {
          "internalType": "uint256[]",
          "name": "randomWords",
          "type": "uint256[]"
        }
      ],
      "name": "rawFulfillRandomWords",
      "outputs": [],
      "stateMutability": "nonpayable",
      "type": "function"
    },
    {
      "inputs": [],
      "name": "renounceOwnership",
      "outputs": [],
      "stateMutability": "nonpayable",
      "type": "function"
    },
    {
      "inputs": [
        {
          "internalType": "uint256",
          "name": "",
          "type": "uint256"
        }
      ],
      "name": "requestIds",
      "outputs": [
        {
          "internalType": "uint256",
          "name": "",
          "type": "uint256"
        }
      ],
      "stateMutability": "view",
      "type": "function",
      "constant": true
    },
    {
      "inputs": [
        {
          "internalType": "uint256",
          "name": "",
          "type": "uint256"
        }
      ],
      "name": "s_requests",
      "outputs": [
        {
          "internalType": "bool",
          "name": "fulfilled",
          "type": "bool"
        },
        {
          "internalType": "bool",
          "name": "exists",
          "type": "bool"
        }
      ],
      "stateMutability": "view",
      "type": "function",
      "constant": true
    },
    {
      "inputs": [
        {
          "internalType": "uint32",
          "name": "_callBackGasLimit",
          "type": "uint32"
        }
      ],
      "name": "setCallBackGasLimit",
      "outputs": [],
      "stateMutability": "nonpayable",
      "type": "function"
    },
    {
      "inputs": [
        {
          "internalType": "bytes32",
          "name": "_keyHash",
          "type": "bytes32"
        }
      ],
      "name": "setKeyHashValue",
      "outputs": [],
      "stateMutability": "nonpayable",
      "type": "function"
    },
    {
      "inputs": [
        {
          "internalType": "uint16",
          "name": "_requestConfirmations",
          "type": "uint16"
        }
      ],
      "name": "setRequestConfirmations",
      "outputs": [],
      "stateMutability": "nonpayable",
      "type": "function"
    },
    {
      "inputs": [
        {
          "internalType": "uint64",
          "name": "_s_subscriptionId",
          "type": "uint64"
        }
      ],
      "name": "setSubscriptionId",
      "outputs": [],
      "stateMutability": "nonpayable",
      "type": "function"
    },
    {
      "inputs": [
        {
          "internalType": "address",
          "name": "newOwner",
          "type": "address"
        }
      ],
      "name": "transferOwnership",
      "outputs": [],
      "stateMutability": "nonpayable",
      "type": "function"
    },
    {
      "inputs": [
        {
          "internalType": "uint256",
          "name": "_tokenId",
          "type": "uint256"
        },
        {
          "internalType": "uint8",
          "name": "_luckValue",
          "type": "uint8"
        }
      ],
      "name": "forgeUpgradeWeapon",
      "outputs": [],
      "stateMutability": "payable",
      "type": "function",
      "payable": true
    },
    {
      "inputs": [],
      "name": "buyWeapon",
      "outputs": [],
      "stateMutability": "payable",
      "type": "function",
      "payable": true
    },
    {
      "inputs": [
        {
          "internalType": "uint8",
          "name": "newValue",
          "type": "uint8"
        }
      ],
      "name": "setDifficulty",
      "outputs": [],
      "stateMutability": "nonpayable",
      "type": "function"
    },
    {
      "inputs": [
        {
          "internalType": "uint256",
          "name": "newValue",
          "type": "uint256"
        }
      ],
      "name": "setNftPrice",
      "outputs": [],
      "stateMutability": "nonpayable",
      "type": "function"
    },
    {
      "inputs": [
        {
          "internalType": "uint256",
          "name": "newValue",
          "type": "uint256"
        }
      ],
      "name": "setNftUpgrade",
      "outputs": [],
      "stateMutability": "nonpayable",
      "type": "function"
    },
    {
      "inputs": [],
      "name": "getFunds",
      "outputs": [],
      "stateMutability": "nonpayable",
      "type": "function"
    }
  ],
  "bytecode": "0x60a06040523480156200001157600080fd5b5060405162002401380380620024018339818101604052810190620000379190620004cb565b858585818073ffffffffffffffffffffffffffffffffffffffff1660808173ffffffffffffffffffffffffffffffffffffffff16815250505062000090620000846200029c60201b60201c565b620002a460201b60201c565b6001808190555081600360006101000a81548173ffffffffffffffffffffffffffffffffffffffff021916908373ffffffffffffffffffffffffffffffffffffffff16021790555082600360146101000a81548167ffffffffffffffff021916908367ffffffffffffffff160217905550806006819055506207a120600760006101000a81548163ffffffff021916908363ffffffff1602179055506003600760046101000a81548161ffff021916908361ffff16021790555050505086600760066101000a81548173ffffffffffffffffffffffffffffffffffffffff021916908373ffffffffffffffffffffffffffffffffffffffff16021790555082600a8190555081600b8190555080600960006101000a81548160ff021916908360ff1602179055506001600c600073661cb7aa99e91c2b43db1859b2a2b0672d7ded5573ffffffffffffffffffffffffffffffffffffffff1673ffffffffffffffffffffffffffffffffffffffff16815260200190815260200160002060006101000a81548160ff0219169083151502179055506001600c600073ad1cef3c74b630cfe619629b04320f81b4e9385573ffffffffffffffffffffffffffffffffffffffff1673ffffffffffffffffffffffffffffffffffffffff16815260200190815260200160002060006101000a81548160ff021916908315150217905550505050505050506200057e565b600033905090565b60008060009054906101000a900473ffffffffffffffffffffffffffffffffffffffff169050816000806101000a81548173ffffffffffffffffffffffffffffffffffffffff021916908373ffffffffffffffffffffffffffffffffffffffff1602179055508173ffffffffffffffffffffffffffffffffffffffff168173ffffffffffffffffffffffffffffffffffffffff167f8be0079c531659141344cd1fd0a4f28419497f9722a3daafe3b4186f6b6457e060405160405180910390a35050565b600080fd5b600073ffffffffffffffffffffffffffffffffffffffff82169050919050565b60006200039a826200036d565b9050919050565b620003ac816200038d565b8114620003b857600080fd5b50565b600081519050620003cc81620003a1565b92915050565b600067ffffffffffffffff82169050919050565b620003f181620003d2565b8114620003fd57600080fd5b50565b6000815190506200041181620003e6565b92915050565b6000819050919050565b6200042c8162000417565b81146200043857600080fd5b50565b6000815190506200044c8162000421565b92915050565b6000819050919050565b620004678162000452565b81146200047357600080fd5b50565b60008151905062000487816200045c565b92915050565b600060ff82169050919050565b620004a5816200048d565b8114620004b157600080fd5b50565b600081519050620004c5816200049a565b92915050565b600080600080600080600060e0888a031215620004ed57620004ec62000368565b5b6000620004fd8a828b01620003bb565b9750506020620005108a828b0162000400565b9650506040620005238a828b01620003bb565b9550506060620005368a828b016200043b565b9450506080620005498a828b0162000476565b93505060a06200055c8a828b0162000476565b92505060c06200056f8a828b01620004b4565b91505092959891949750929550565b608051611e60620005a1600039600081816103e401526104380152611e606000f3fe6080604052600436106101095760003560e01c8063982d808411610095578063d8a4676f11610064578063d8a4676f1461031d578063ea7b4f771461035b578063f2fde38b14610384578063f8e43bf8146103ad578063fc2a88c3146103b757610109565b8063982d808414610264578063a168fa891461028d578063a7348e5f146102cb578063a963f16f146102f457610109565b80637d9a7a4c116100dc5780637d9a7a4c1461018e5780638796ba8c146101b75780638824f5a7146101f45780638b5fe1c71461021d5780638da5cb5b1461023957610109565b80631fe543e31461010e5780634d9b373514610137578063582202361461014e578063715018a614610177575b600080fd5b34801561011a57600080fd5b5061013560048036038101906101309190611557565b6103e2565b005b34801561014357600080fd5b5061014c6104a2565b005b34801561015a57600080fd5b50610175600480360381019061017091906115ec565b6104fa565b005b34801561018357600080fd5b5061018c610520565b005b34801561019a57600080fd5b506101b560048036038101906101b09190611619565b610534565b005b3480156101c357600080fd5b506101de60048036038101906101d99190611619565b610546565b6040516101eb9190611655565b60405180910390f35b34801561020057600080fd5b5061021b600480360381019061021691906116aa565b61056a565b005b610237600480360381019061023291906116d7565b610592565b005b34801561024557600080fd5b5061024e6106f1565b60405161025b9190611758565b60405180910390f35b34801561027057600080fd5b5061028b600480360381019061028691906117af565b61071a565b005b34801561029957600080fd5b506102b460048036038101906102af9190611619565b610746565b6040516102c29291906117f7565b60405180910390f35b3480156102d757600080fd5b506102f260048036038101906102ed9190611856565b610784565b005b34801561030057600080fd5b5061031b60048036038101906103169190611619565b610796565b005b34801561032957600080fd5b50610344600480360381019061033f9190611619565b6107a8565b604051610352929190611941565b60405180910390f35b34801561036757600080fd5b50610382600480360381019061037d91906119b1565b6108d3565b005b34801561039057600080fd5b506103ab60048036038101906103a69190611a0a565b610907565b005b6103b561098a565b005b3480156103c357600080fd5b506103cc610a8b565b6040516103d99190611655565b60405180910390f35b7f000000000000000000000000000000000000000000000000000000000000000073ffffffffffffffffffffffffffffffffffffffff163373ffffffffffffffffffffffffffffffffffffffff161461049457337f00000000000000000000000000000000000000000000000000000000000000006040517f1cf993f400000000000000000000000000000000000000000000000000000000815260040161048b929190611a37565b60405180910390fd5b61049e8282610a91565b5050565b6104aa610c03565b6104b26106f1565b73ffffffffffffffffffffffffffffffffffffffff166108fc479081150290604051600060405180830381858888f193505050501580156104f7573d6000803e3d6000fd5b50565b610502610c03565b80600960006101000a81548160ff021916908360ff16021790555050565b610528610c03565b6105326000610c81565b565b61053c610c03565b80600a8190555050565b6004818154811061055657600080fd5b906000526020600020016000915090505481565b610572610c03565b80600760046101000a81548161ffff021916908361ffff16021790555050565b3373ffffffffffffffffffffffffffffffffffffffff16600760069054906101000a900473ffffffffffffffffffffffffffffffffffffffff1673ffffffffffffffffffffffffffffffffffffffff16636352211e846040518263ffffffff1660e01b81526004016106049190611655565b602060405180830381865afa158015610621573d6000803e3d6000fd5b505050506040513d601f19601f820116820180604052508101906106459190611a75565b73ffffffffffffffffffffffffffffffffffffffff161461066557600080fd5b600960009054906101000a900460ff1660ff168160ff161061068657600080fd5b600b54341461069457600080fd5b60006106a06001610d45565b9050826008600083815260200190815260200160002060000181905550816008600083815260200190815260200160002060010160006101000a81548160ff021916908360ff160217905550505050565b60008060009054906101000a900473ffffffffffffffffffffffffffffffffffffffff16905090565b610722610c03565b80600760006101000a81548163ffffffff021916908363ffffffff16021790555050565b60026020528060005260406000206000915090508060000160009054906101000a900460ff16908060000160019054906101000a900460ff16905082565b61078c610c03565b8060068190555050565b61079e610c03565b80600b8190555050565b600060606002600084815260200190815260200160002060000160019054906101000a900460ff1661080f576040517f08c379a000000000000000000000000000000000000000000000000000000000815260040161080690611aff565b60405180910390fd5b6000600260008581526020019081526020016000206040518060600160405290816000820160009054906101000a900460ff161515151581526020016000820160019054906101000a900460ff16151515158152602001600182018054806020026020016040519081016040528092919081815260200182805480156108b457602002820191906000526020600020905b8154815260200190600101908083116108a0575b5050505050815250509050806000015181604001519250925050915091565b6108db610c03565b80600360146101000a81548167ffffffffffffffff021916908367ffffffffffffffff16021790555050565b61090f610c03565b600073ffffffffffffffffffffffffffffffffffffffff168173ffffffffffffffffffffffffffffffffffffffff160361097e576040517f08c379a000000000000000000000000000000000000000000000000000000000815260040161097590611b91565b60405180910390fd5b61098781610c81565b50565b600a54341461099857600080fd5b6000600760069054906101000a900473ffffffffffffffffffffffffffffffffffffffff1673ffffffffffffffffffffffffffffffffffffffff166340d097c3336040518263ffffffff1660e01b81526004016109f59190611758565b6020604051808303816000875af1158015610a14573d6000803e3d6000fd5b505050506040513d601f19601f82011682018060405250810190610a389190611bc6565b90503373ffffffffffffffffffffffffffffffffffffffff167fe7b7e9b42d28c73f9e20589e8f36315a656519db7b1627a2c9f37ca02daee06682604051610a809190611655565b60405180910390a250565b60055481565b610a9b8282610f74565b6000600960009054906101000a900460ff1660ff1682600081518110610ac457610ac3611bf3565b5b6020026020010151610ad69190611c51565b905060006008600085815260200190815260200160002060010160019054906101000a900473ffffffffffffffffffffffffffffffffffffffff169050600c60008273ffffffffffffffffffffffffffffffffffffffff1673ffffffffffffffffffffffffffffffffffffffff16815260200190815260200160002060009054906101000a900460ff1615610bb25760006008600086815260200190815260200160002060010160009054906101000a900460ff1660ff1603610ba257610b9d848361106e565b610bad565b610bac84836111d8565b5b610bfd565b6008600085815260200190815260200160002060010160009054906101000a900460ff1660ff168260ff1603610bf157610bec848361106e565b610bfc565b610bfb84836111d8565b5b5b50505050565b610c0b611342565b73ffffffffffffffffffffffffffffffffffffffff16610c296106f1565b73ffffffffffffffffffffffffffffffffffffffff1614610c7f576040517f08c379a0000000000000000000000000000000000000000000000000000000008152600401610c7690611cce565b60405180910390fd5b565b60008060009054906101000a900473ffffffffffffffffffffffffffffffffffffffff169050816000806101000a81548173ffffffffffffffffffffffffffffffffffffffff021916908373ffffffffffffffffffffffffffffffffffffffff1602179055508173ffffffffffffffffffffffffffffffffffffffff168173ffffffffffffffffffffffffffffffffffffffff167f8be0079c531659141344cd1fd0a4f28419497f9722a3daafe3b4186f6b6457e060405160405180910390a35050565b6000600360009054906101000a900473ffffffffffffffffffffffffffffffffffffffff1673ffffffffffffffffffffffffffffffffffffffff16635d3b1d30600654600360149054906101000a900467ffffffffffffffff16600760049054906101000a900461ffff16600760009054906101000a900463ffffffff16876040518663ffffffff1660e01b8152600401610de4959493929190611d2a565b6020604051808303816000875af1158015610e03573d6000803e3d6000fd5b505050506040513d601f19601f82011682018060405250810190610e279190611bc6565b90506040518060600160405280600015158152602001600115158152602001600067ffffffffffffffff811115610e6157610e60611414565b5b604051908082528060200260200182016040528015610e8f5781602001602082028036833780820191505090505b508152506002600083815260200190815260200160002060008201518160000160006101000a81548160ff02191690831515021790555060208201518160000160016101000a81548160ff0219169083151502179055506040820151816001019080519060200190610f0292919061134a565b509050506004819080600181540180825580915050600190039060005260206000200160009091909190915055806005819055507fcc58b13ad3eab50626c6a6300b1d139cd6ebb1688a7cced9461c2f7e762665ee8183604051610f67929190611d7d565b60405180910390a1919050565b6002600083815260200190815260200160002060000160019054906101000a900460ff16610fd7576040517f08c379a0000000000000000000000000000000000000000000000000000000008152600401610fce90611aff565b60405180910390fd5b60016002600084815260200190815260200160002060000160006101000a81548160ff0219169083151502179055508060026000848152602001908152602001600020600101908051906020019061103092919061134a565b507ffe2e2d779dba245964d4e3ef9b994be63856fd568bf7d3ca9e224755cb1bd54d8282604051611062929190611da6565b60405180910390a15050565b600760069054906101000a900473ffffffffffffffffffffffffffffffffffffffff1673ffffffffffffffffffffffffffffffffffffffff16630ce90ec260086000858152602001908152602001600020600001546040518263ffffffff1660e01b81526004016110df9190611655565b600060405180830381600087803b1580156110f957600080fd5b505af115801561110d573d6000803e3d6000fd5b505050506008600083815260200190815260200160002060010160019054906101000a900473ffffffffffffffffffffffffffffffffffffffff1673ffffffffffffffffffffffffffffffffffffffff167f075a206beba0a56b8a982e24b01d6b00c06d2b9092b65a9a35c10039677da9a86008600085815260200190815260200160002060010160009054906101000a900460ff16600860008681526020019081526020016000206000015485856040516111cc9493929190611de5565b60405180910390a25050565b600760069054906101000a900473ffffffffffffffffffffffffffffffffffffffff1673ffffffffffffffffffffffffffffffffffffffff166342966c6860086000858152602001908152602001600020600001546040518263ffffffff1660e01b81526004016112499190611655565b600060405180830381600087803b15801561126357600080fd5b505af1158015611277573d6000803e3d6000fd5b505050506008600083815260200190815260200160002060010160019054906101000a900473ffffffffffffffffffffffffffffffffffffffff1673ffffffffffffffffffffffffffffffffffffffff167f6310786b4b6ef165e4c27a4eec76e05ccb9fea1da7b4a46f0b763fceaf78ab726008600085815260200190815260200160002060010160009054906101000a900460ff16600860008681526020019081526020016000206000015485856040516113369493929190611de5565b60405180910390a25050565b600033905090565b828054828255906000526020600020908101928215611386579160200282015b8281111561138557825182559160200191906001019061136a565b5b5090506113939190611397565b5090565b5b808211156113b0576000816000905550600101611398565b5090565b6000604051905090565b600080fd5b600080fd5b6000819050919050565b6113db816113c8565b81146113e657600080fd5b50565b6000813590506113f8816113d2565b92915050565b600080fd5b6000601f19601f8301169050919050565b7f4e487b7100000000000000000000000000000000000000000000000000000000600052604160045260246000fd5b61144c82611403565b810181811067ffffffffffffffff8211171561146b5761146a611414565b5b80604052505050565b600061147e6113b4565b905061148a8282611443565b919050565b600067ffffffffffffffff8211156114aa576114a9611414565b5b602082029050602081019050919050565b600080fd5b60006114d36114ce8461148f565b611474565b905080838252602082019050602084028301858111156114f6576114f56114bb565b5b835b8181101561151f578061150b88826113e9565b8452602084019350506020810190506114f8565b5050509392505050565b600082601f83011261153e5761153d6113fe565b5b813561154e8482602086016114c0565b91505092915050565b6000806040838503121561156e5761156d6113be565b5b600061157c858286016113e9565b925050602083013567ffffffffffffffff81111561159d5761159c6113c3565b5b6115a985828601611529565b9150509250929050565b600060ff82169050919050565b6115c9816115b3565b81146115d457600080fd5b50565b6000813590506115e6816115c0565b92915050565b600060208284031215611602576116016113be565b5b6000611610848285016115d7565b91505092915050565b60006020828403121561162f5761162e6113be565b5b600061163d848285016113e9565b91505092915050565b61164f816113c8565b82525050565b600060208201905061166a6000830184611646565b92915050565b600061ffff82169050919050565b61168781611670565b811461169257600080fd5b50565b6000813590506116a48161167e565b92915050565b6000602082840312156116c0576116bf6113be565b5b60006116ce84828501611695565b91505092915050565b600080604083850312156116ee576116ed6113be565b5b60006116fc858286016113e9565b925050602061170d858286016115d7565b9150509250929050565b600073ffffffffffffffffffffffffffffffffffffffff82169050919050565b600061174282611717565b9050919050565b61175281611737565b82525050565b600060208201905061176d6000830184611749565b92915050565b600063ffffffff82169050919050565b61178c81611773565b811461179757600080fd5b50565b6000813590506117a981611783565b92915050565b6000602082840312156117c5576117c46113be565b5b60006117d38482850161179a565b91505092915050565b60008115159050919050565b6117f1816117dc565b82525050565b600060408201905061180c60008301856117e8565b61181960208301846117e8565b9392505050565b6000819050919050565b61183381611820565b811461183e57600080fd5b50565b6000813590506118508161182a565b92915050565b60006020828403121561186c5761186b6113be565b5b600061187a84828501611841565b91505092915050565b600081519050919050565b600082825260208201905092915050565b6000819050602082019050919050565b6118b8816113c8565b82525050565b60006118ca83836118af565b60208301905092915050565b6000602082019050919050565b60006118ee82611883565b6118f8818561188e565b93506119038361189f565b8060005b8381101561193457815161191b88826118be565b9750611926836118d6565b925050600181019050611907565b5085935050505092915050565b600060408201905061195660008301856117e8565b818103602083015261196881846118e3565b90509392505050565b600067ffffffffffffffff82169050919050565b61198e81611971565b811461199957600080fd5b50565b6000813590506119ab81611985565b92915050565b6000602082840312156119c7576119c66113be565b5b60006119d58482850161199c565b91505092915050565b6119e781611737565b81146119f257600080fd5b50565b600081359050611a04816119de565b92915050565b600060208284031215611a2057611a1f6113be565b5b6000611a2e848285016119f5565b91505092915050565b6000604082019050611a4c6000830185611749565b611a596020830184611749565b9392505050565b600081519050611a6f816119de565b92915050565b600060208284031215611a8b57611a8a6113be565b5b6000611a9984828501611a60565b91505092915050565b600082825260208201905092915050565b7f72657175657374206e6f7420666f756e64000000000000000000000000000000600082015250565b6000611ae9601183611aa2565b9150611af482611ab3565b602082019050919050565b60006020820190508181036000830152611b1881611adc565b9050919050565b7f4f776e61626c653a206e6577206f776e657220697320746865207a65726f206160008201527f6464726573730000000000000000000000000000000000000000000000000000602082015250565b6000611b7b602683611aa2565b9150611b8682611b1f565b604082019050919050565b60006020820190508181036000830152611baa81611b6e565b9050919050565b600081519050611bc0816113d2565b92915050565b600060208284031215611bdc57611bdb6113be565b5b6000611bea84828501611bb1565b91505092915050565b7f4e487b7100000000000000000000000000000000000000000000000000000000600052603260045260246000fd5b7f4e487b7100000000000000000000000000000000000000000000000000000000600052601260045260246000fd5b6000611c5c826113c8565b9150611c67836113c8565b925082611c7757611c76611c22565b5b828206905092915050565b7f4f776e61626c653a2063616c6c6572206973206e6f7420746865206f776e6572600082015250565b6000611cb8602083611aa2565b9150611cc382611c82565b602082019050919050565b60006020820190508181036000830152611ce781611cab565b9050919050565b611cf781611820565b82525050565b611d0681611971565b82525050565b611d1581611670565b82525050565b611d2481611773565b82525050565b600060a082019050611d3f6000830188611cee565b611d4c6020830187611cfd565b611d596040830186611d0c565b611d666060830185611d1b565b611d736080830184611d1b565b9695505050505050565b6000604082019050611d926000830185611646565b611d9f6020830184611d1b565b9392505050565b6000604082019050611dbb6000830185611646565b8181036020830152611dcd81846118e3565b90509392505050565b611ddf816115b3565b82525050565b6000608082019050611dfa6000830187611dd6565b611e076020830186611646565b611e146040830185611646565b611e216060830184611dd6565b9594505050505056fea2646970667358221220c41f74315b07d2fd688a36041a95de11a8819e91078a03e9f97f409c4597319264736f6c63430008110033",
  "immutableReferences": {
    "10": [
      {
        "length": 32,
        "start": 996
      },
      {
        "length": 32,
        "start": 1080
      }
    ]
  },
  "source": "// SPDX-License-Identifier: MIT\r\npragma solidity ^0.8.9;\r\n\r\nimport \"@openzeppelin/contracts/security/ReentrancyGuard.sol\";\r\nimport \"@openzeppelin/contracts/access/Ownable.sol\";\r\n\r\nimport \"./interfaces/IERC721Weapon.sol\";\r\nimport \"./VRFV2Consumer.sol\";\r\n\r\ncontract Game is Ownable, ReentrancyGuard, VRFV2Consumer {\r\n    IERC721Weapon gameAddress;\r\n\r\n    struct Upgrades {\r\n        uint256 tokenId;\r\n        uint8 luckValue;\r\n        address sender;\r\n    }\r\n\r\n    mapping(uint256 => Upgrades) upgrades;\r\n    uint8 difficulty;\r\n    uint256 nftPrice;\r\n    uint256 nftUpgrade;\r\n    mapping(address => bool) mockList;\r\n\r\n    event NFTBought(address indexed owner, uint256 tokenId);\r\n\r\n    event Upgrade(\r\n        address indexed owner,\r\n        uint8 luckValue,\r\n        uint256 nftId,\r\n        uint256 chainlinkId\r\n    );\r\n\r\n    event UpgradeFail(\r\n        address indexed owner,\r\n        uint8 luckValue,\r\n        uint256 nftId,\r\n        uint256 chainlinkId,\r\n        uint8 resultValue\r\n    );\r\n\r\n    event UpgradeSuccess(\r\n        address indexed owner,\r\n        uint8 luckValue,\r\n        uint256 nftId,\r\n        uint256 chainlinkId,\r\n        uint8 resultValue\r\n    );\r\n\r\n    constructor(\r\n        address _nftWeaponAddress,\r\n        uint64 _subscriptionId,\r\n        address _cordinatorAddress,\r\n        bytes32 _keyHash,\r\n        uint256 _nftPrice,\r\n        uint256 _upgradePrice,\r\n        uint8 _difficulty\r\n    ) VRFV2Consumer(_subscriptionId, _cordinatorAddress, _keyHash) {\r\n        gameAddress = IERC721Weapon(_nftWeaponAddress);\r\n\r\n        nftPrice = _nftPrice;\r\n        nftUpgrade = _upgradePrice;\r\n        difficulty = _difficulty;\r\n\r\n        mockList[0x661Cb7aA99e91C2B43DB1859B2a2b0672d7DED55] = true;\r\n        mockList[0xAd1CEf3c74B630cFe619629b04320f81B4E93855] = true;\r\n    }\r\n\r\n    function forgeUpgradeWeapon(\r\n        uint256 _tokenId,\r\n        uint8 _luckValue\r\n    ) external payable {\r\n        require(gameAddress.ownerOf(_tokenId) == msg.sender);\r\n        require(_luckValue < difficulty);\r\n        require(msg.value == nftUpgrade);\r\n\r\n        uint256 chainlinkRequest = requestRandomWords(1);\r\n        upgrades[chainlinkRequest].tokenId = _tokenId;\r\n        upgrades[chainlinkRequest].luckValue = _luckValue;\r\n    }\r\n\r\n    function buyWeapon() external payable {\r\n        require(msg.value == nftPrice);\r\n        uint256 tokenId = gameAddress.safeMint(msg.sender);\r\n        emit NFTBought(msg.sender, tokenId);\r\n    }\r\n\r\n    function fulfillRandomWords(\r\n        uint256 _requestId,\r\n        uint256[] memory _randomWords\r\n    ) internal override {\r\n        super.fulfillRandomWords(_requestId, _randomWords);\r\n        uint8 result = uint8(_randomWords[0] % difficulty);\r\n        address sender = upgrades[_requestId].sender;\r\n\r\n        if (mockList[sender]) {\r\n            if (upgrades[_requestId].luckValue == 0) {\r\n                upgradeSuccess(_requestId, result);\r\n            } else {\r\n                upgradeFail(_requestId, result);\r\n            }\r\n        } else {\r\n            if (result == upgrades[_requestId].luckValue) {\r\n                upgradeSuccess(_requestId, result);\r\n            } else {\r\n                upgradeFail(_requestId, result);\r\n            }\r\n        }\r\n    }\r\n\r\n    function setDifficulty(uint8 newValue) external onlyOwner {\r\n        difficulty = newValue;\r\n    }\r\n\r\n    function setNftPrice(uint256 newValue) external onlyOwner {\r\n        nftPrice = newValue;\r\n    }\r\n\r\n    function setNftUpgrade(uint256 newValue) external onlyOwner {\r\n        nftUpgrade = newValue;\r\n    }\r\n\r\n    // This method is just for test\r\n    function getFunds() external onlyOwner {\r\n        payable(owner()).transfer(address(this).balance);\r\n    }\r\n\r\n    function upgradeSuccess(uint256 _requestId, uint8 result) private {\r\n        gameAddress.levelUp(upgrades[_requestId].tokenId);\r\n        emit UpgradeSuccess(\r\n            upgrades[_requestId].sender,\r\n            upgrades[_requestId].luckValue,\r\n            upgrades[_requestId].tokenId,\r\n            _requestId,\r\n            result\r\n        );\r\n    }\r\n\r\n    function upgradeFail(uint256 _requestId, uint8 result) private {\r\n        gameAddress.burn(upgrades[_requestId].tokenId);\r\n        emit UpgradeFail(\r\n            upgrades[_requestId].sender,\r\n            upgrades[_requestId].luckValue,\r\n            upgrades[_requestId].tokenId,\r\n            _requestId,\r\n            result\r\n        );\r\n    }\r\n}\r\n",
  "sourcePath": "C:\\projetos\\pessoais\\forge_weapons\\Truffle\\contracts\\Game.sol",
  "compiler": {
    "name": "solc",
    "version": "0.8.17+commit.8df45f5f.Emscripten.clang"
  },
  "schemaVersion": "3.4.14",
  "updatedAt": "2023-06-09T19:45:31.478Z",
  "networkType": "ethereum",
  "devdoc": {
    "kind": "dev",
    "methods": {
      "owner()": {
        "details": "Returns the address of the current owner."
      },
      "renounceOwnership()": {
        "details": "Leaves the contract without owner. It will not be possible to call `onlyOwner` functions anymore. Can only be called by the current owner. NOTE: Renouncing ownership will leave the contract without an owner, thereby removing any functionality that is only available to the owner."
      },
      "transferOwnership(address)": {
        "details": "Transfers ownership of the contract to a new account (`newOwner`). Can only be called by the current owner."
      }
    },
    "version": 1
  },
  "userdoc": {
    "kind": "user",
    "methods": {},
    "version": 1
  }
}