{
  "contractName": "Game",
  "abi": [
    {
      "inputs": [
        {
          "internalType": "address",
          "name": "_nftWeaponAddress",
          "type": "address"
        },
        {
          "internalType": "uint64",
          "name": "_subscriptionId",
          "type": "uint64"
        },
        {
          "internalType": "address",
          "name": "_cordinatorAddress",
          "type": "address"
        },
        {
          "internalType": "bytes32",
          "name": "_keyHash",
          "type": "bytes32"
        },
        {
          "internalType": "uint256",
          "name": "_nftPrice",
          "type": "uint256"
        },
        {
          "internalType": "uint256",
          "name": "_upgradePrice",
          "type": "uint256"
        },
        {
          "internalType": "uint8",
          "name": "_difficulty",
          "type": "uint8"
        }
      ],
      "stateMutability": "nonpayable",
      "type": "constructor"
    },
    {
      "inputs": [
        {
          "internalType": "address",
          "name": "have",
          "type": "address"
        },
        {
          "internalType": "address",
          "name": "want",
          "type": "address"
        }
      ],
      "name": "OnlyCoordinatorCanFulfill",
      "type": "error"
    },
    {
      "anonymous": false,
      "inputs": [
        {
          "indexed": true,
          "internalType": "address",
          "name": "owner",
          "type": "address"
        },
        {
          "indexed": false,
          "internalType": "uint256",
          "name": "tokenId",
          "type": "uint256"
        }
      ],
      "name": "NFTBought",
      "type": "event"
    },
    {
      "anonymous": false,
      "inputs": [
        {
          "indexed": true,
          "internalType": "address",
          "name": "previousOwner",
          "type": "address"
        },
        {
          "indexed": true,
          "internalType": "address",
          "name": "newOwner",
          "type": "address"
        }
      ],
      "name": "OwnershipTransferred",
      "type": "event"
    },
    {
      "anonymous": false,
      "inputs": [
        {
          "indexed": false,
          "internalType": "uint256",
          "name": "requestId",
          "type": "uint256"
        },
        {
          "indexed": false,
          "internalType": "uint256[]",
          "name": "randomWords",
          "type": "uint256[]"
        }
      ],
      "name": "RequestFulfilled",
      "type": "event"
    },
    {
      "anonymous": false,
      "inputs": [
        {
          "indexed": false,
          "internalType": "uint256",
          "name": "requestId",
          "type": "uint256"
        },
        {
          "indexed": false,
          "internalType": "uint32",
          "name": "numWords",
          "type": "uint32"
        }
      ],
      "name": "RequestSent",
      "type": "event"
    },
    {
      "anonymous": false,
      "inputs": [
        {
          "indexed": true,
          "internalType": "address",
          "name": "owner",
          "type": "address"
        },
        {
          "indexed": false,
          "internalType": "uint8",
          "name": "luckValue",
          "type": "uint8"
        },
        {
          "indexed": false,
          "internalType": "uint256",
          "name": "nftId",
          "type": "uint256"
        },
        {
          "indexed": false,
          "internalType": "uint256",
          "name": "chainlinkId",
          "type": "uint256"
        }
      ],
      "name": "Upgrade",
      "type": "event"
    },
    {
      "anonymous": false,
      "inputs": [
        {
          "indexed": true,
          "internalType": "address",
          "name": "owner",
          "type": "address"
        },
        {
          "indexed": false,
          "internalType": "uint8",
          "name": "luckValue",
          "type": "uint8"
        },
        {
          "indexed": false,
          "internalType": "uint256",
          "name": "nftId",
          "type": "uint256"
        },
        {
          "indexed": false,
          "internalType": "uint256",
          "name": "chainlinkId",
          "type": "uint256"
        },
        {
          "indexed": false,
          "internalType": "uint8",
          "name": "resultValue",
          "type": "uint8"
        }
      ],
      "name": "UpgradeFail",
      "type": "event"
    },
    {
      "anonymous": false,
      "inputs": [
        {
          "indexed": true,
          "internalType": "address",
          "name": "owner",
          "type": "address"
        },
        {
          "indexed": false,
          "internalType": "uint8",
          "name": "luckValue",
          "type": "uint8"
        },
        {
          "indexed": false,
          "internalType": "uint256",
          "name": "nftId",
          "type": "uint256"
        },
        {
          "indexed": false,
          "internalType": "uint256",
          "name": "chainlinkId",
          "type": "uint256"
        },
        {
          "indexed": false,
          "internalType": "uint8",
          "name": "resultValue",
          "type": "uint8"
        }
      ],
      "name": "UpgradeSuccess",
      "type": "event"
    },
    {
      "inputs": [
        {
          "internalType": "uint256",
          "name": "_requestId",
          "type": "uint256"
        }
      ],
      "name": "getRequestStatus",
      "outputs": [
        {
          "internalType": "bool",
          "name": "fulfilled",
          "type": "bool"
        },
        {
          "internalType": "uint256[]",
          "name": "randomWords",
          "type": "uint256[]"
        }
      ],
      "stateMutability": "view",
      "type": "function",
      "constant": true
    },
    {
      "inputs": [],
      "name": "lastRequestId",
      "outputs": [
        {
          "internalType": "uint256",
          "name": "",
          "type": "uint256"
        }
      ],
      "stateMutability": "view",
      "type": "function",
      "constant": true
    },
    {
      "inputs": [],
      "name": "owner",
      "outputs": [
        {
          "internalType": "address",
          "name": "",
          "type": "address"
        }
      ],
      "stateMutability": "view",
      "type": "function",
      "constant": true
    },
    {
      "inputs": [
        {
          "internalType": "uint256",
          "name": "requestId",
          "type": "uint256"
        },
        {
          "internalType": "uint256[]",
          "name": "randomWords",
          "type": "uint256[]"
        }
      ],
      "name": "rawFulfillRandomWords",
      "outputs": [],
      "stateMutability": "nonpayable",
      "type": "function"
    },
    {
      "inputs": [],
      "name": "renounceOwnership",
      "outputs": [],
      "stateMutability": "nonpayable",
      "type": "function"
    },
    {
      "inputs": [
        {
          "internalType": "uint256",
          "name": "",
          "type": "uint256"
        }
      ],
      "name": "requestIds",
      "outputs": [
        {
          "internalType": "uint256",
          "name": "",
          "type": "uint256"
        }
      ],
      "stateMutability": "view",
      "type": "function",
      "constant": true
    },
    {
      "inputs": [
        {
          "internalType": "uint256",
          "name": "",
          "type": "uint256"
        }
      ],
      "name": "s_requests",
      "outputs": [
        {
          "internalType": "bool",
          "name": "fulfilled",
          "type": "bool"
        },
        {
          "internalType": "bool",
          "name": "exists",
          "type": "bool"
        }
      ],
      "stateMutability": "view",
      "type": "function",
      "constant": true
    },
    {
      "inputs": [
        {
          "internalType": "uint32",
          "name": "_callBackGasLimit",
          "type": "uint32"
        }
      ],
      "name": "setCallBackGasLimit",
      "outputs": [],
      "stateMutability": "nonpayable",
      "type": "function"
    },
    {
      "inputs": [
        {
          "internalType": "bytes32",
          "name": "_keyHash",
          "type": "bytes32"
        }
      ],
      "name": "setKeyHashValue",
      "outputs": [],
      "stateMutability": "nonpayable",
      "type": "function"
    },
    {
      "inputs": [
        {
          "internalType": "uint16",
          "name": "_requestConfirmations",
          "type": "uint16"
        }
      ],
      "name": "setRequestConfirmations",
      "outputs": [],
      "stateMutability": "nonpayable",
      "type": "function"
    },
    {
      "inputs": [
        {
          "internalType": "uint64",
          "name": "_s_subscriptionId",
          "type": "uint64"
        }
      ],
      "name": "setSubscriptionId",
      "outputs": [],
      "stateMutability": "nonpayable",
      "type": "function"
    },
    {
      "inputs": [
        {
          "internalType": "address",
          "name": "newOwner",
          "type": "address"
        }
      ],
      "name": "transferOwnership",
      "outputs": [],
      "stateMutability": "nonpayable",
      "type": "function"
    },
    {
      "inputs": [
        {
          "internalType": "uint256",
          "name": "_tokenId",
          "type": "uint256"
        },
        {
          "internalType": "uint8",
          "name": "_luckValue",
          "type": "uint8"
        }
      ],
      "name": "forgeUpgradeWeapon",
      "outputs": [],
      "stateMutability": "payable",
      "type": "function",
      "payable": true
    },
    {
      "inputs": [],
      "name": "buyWeapon",
      "outputs": [],
      "stateMutability": "payable",
      "type": "function",
      "payable": true
    },
    {
      "inputs": [
        {
          "internalType": "uint8",
          "name": "newValue",
          "type": "uint8"
        }
      ],
      "name": "setDifficulty",
      "outputs": [],
      "stateMutability": "nonpayable",
      "type": "function"
    },
    {
      "inputs": [
        {
          "internalType": "uint256",
          "name": "newValue",
          "type": "uint256"
        }
      ],
      "name": "setNftPrice",
      "outputs": [],
      "stateMutability": "nonpayable",
      "type": "function"
    },
    {
      "inputs": [
        {
          "internalType": "uint256",
          "name": "newValue",
          "type": "uint256"
        }
      ],
      "name": "setNftUpgrade",
      "outputs": [],
      "stateMutability": "nonpayable",
      "type": "function"
    },
    {
      "inputs": [],
      "name": "getFunds",
      "outputs": [],
      "stateMutability": "nonpayable",
      "type": "function"
    }
  ],
  "bytecode": "0x60a06040523480156200001157600080fd5b5060405162002231380380620022318339818101604052810190620000379190620003f3565b858585818073ffffffffffffffffffffffffffffffffffffffff1660808173ffffffffffffffffffffffffffffffffffffffff1681525050506200009062000084620001c460201b60201c565b620001cc60201b60201c565b6001808190555081600360006101000a81548173ffffffffffffffffffffffffffffffffffffffff021916908373ffffffffffffffffffffffffffffffffffffffff16021790555082600360146101000a81548167ffffffffffffffff021916908367ffffffffffffffff160217905550806006819055506207a120600760006101000a81548163ffffffff021916908363ffffffff1602179055506003600760046101000a81548161ffff021916908361ffff16021790555050505086600760066101000a81548173ffffffffffffffffffffffffffffffffffffffff021916908373ffffffffffffffffffffffffffffffffffffffff16021790555082600a8190555081600b8190555080600960006101000a81548160ff021916908360ff16021790555050505050505050620004a6565b600033905090565b60008060009054906101000a900473ffffffffffffffffffffffffffffffffffffffff169050816000806101000a81548173ffffffffffffffffffffffffffffffffffffffff021916908373ffffffffffffffffffffffffffffffffffffffff1602179055508173ffffffffffffffffffffffffffffffffffffffff168173ffffffffffffffffffffffffffffffffffffffff167f8be0079c531659141344cd1fd0a4f28419497f9722a3daafe3b4186f6b6457e060405160405180910390a35050565b600080fd5b600073ffffffffffffffffffffffffffffffffffffffff82169050919050565b6000620002c28262000295565b9050919050565b620002d481620002b5565b8114620002e057600080fd5b50565b600081519050620002f481620002c9565b92915050565b600067ffffffffffffffff82169050919050565b6200031981620002fa565b81146200032557600080fd5b50565b60008151905062000339816200030e565b92915050565b6000819050919050565b62000354816200033f565b81146200036057600080fd5b50565b600081519050620003748162000349565b92915050565b6000819050919050565b6200038f816200037a565b81146200039b57600080fd5b50565b600081519050620003af8162000384565b92915050565b600060ff82169050919050565b620003cd81620003b5565b8114620003d957600080fd5b50565b600081519050620003ed81620003c2565b92915050565b600080600080600080600060e0888a03121562000415576200041462000290565b5b6000620004258a828b01620002e3565b9750506020620004388a828b0162000328565b96505060406200044b8a828b01620002e3565b95505060606200045e8a828b0162000363565b9450506080620004718a828b016200039e565b93505060a0620004848a828b016200039e565b92505060c0620004978a828b01620003dc565b91505092959891949750929550565b608051611d68620004c9600039600081816103e401526104380152611d686000f3fe6080604052600436106101095760003560e01c8063982d808411610095578063d8a4676f11610064578063d8a4676f1461031d578063ea7b4f771461035b578063f2fde38b14610384578063f8e43bf8146103ad578063fc2a88c3146103b757610109565b8063982d808414610264578063a168fa891461028d578063a7348e5f146102cb578063a963f16f146102f457610109565b80637d9a7a4c116100dc5780637d9a7a4c1461018e5780638796ba8c146101b75780638824f5a7146101f45780638b5fe1c71461021d5780638da5cb5b1461023957610109565b80631fe543e31461010e5780634d9b373514610137578063582202361461014e578063715018a614610177575b600080fd5b34801561011a57600080fd5b506101356004803603810190610130919061145f565b6103e2565b005b34801561014357600080fd5b5061014c6104a2565b005b34801561015a57600080fd5b50610175600480360381019061017091906114f4565b6104fa565b005b34801561018357600080fd5b5061018c610520565b005b34801561019a57600080fd5b506101b560048036038101906101b09190611521565b610534565b005b3480156101c357600080fd5b506101de60048036038101906101d99190611521565b610546565b6040516101eb919061155d565b60405180910390f35b34801561020057600080fd5b5061021b600480360381019061021691906115b2565b61056a565b005b610237600480360381019061023291906115df565b610592565b005b34801561024557600080fd5b5061024e6106f1565b60405161025b9190611660565b60405180910390f35b34801561027057600080fd5b5061028b600480360381019061028691906116b7565b61071a565b005b34801561029957600080fd5b506102b460048036038101906102af9190611521565b610746565b6040516102c29291906116ff565b60405180910390f35b3480156102d757600080fd5b506102f260048036038101906102ed919061175e565b610784565b005b34801561030057600080fd5b5061031b60048036038101906103169190611521565b610796565b005b34801561032957600080fd5b50610344600480360381019061033f9190611521565b6107a8565b604051610352929190611849565b60405180910390f35b34801561036757600080fd5b50610382600480360381019061037d91906118b9565b6108d3565b005b34801561039057600080fd5b506103ab60048036038101906103a69190611912565b610907565b005b6103b561098a565b005b3480156103c357600080fd5b506103cc610a8b565b6040516103d9919061155d565b60405180910390f35b7f000000000000000000000000000000000000000000000000000000000000000073ffffffffffffffffffffffffffffffffffffffff163373ffffffffffffffffffffffffffffffffffffffff161461049457337f00000000000000000000000000000000000000000000000000000000000000006040517f1cf993f400000000000000000000000000000000000000000000000000000000815260040161048b92919061193f565b60405180910390fd5b61049e8282610a91565b5050565b6104aa610ddf565b6104b26106f1565b73ffffffffffffffffffffffffffffffffffffffff166108fc479081150290604051600060405180830381858888f193505050501580156104f7573d6000803e3d6000fd5b50565b610502610ddf565b80600960006101000a81548160ff021916908360ff16021790555050565b610528610ddf565b6105326000610e5d565b565b61053c610ddf565b80600a8190555050565b6004818154811061055657600080fd5b906000526020600020016000915090505481565b610572610ddf565b80600760046101000a81548161ffff021916908361ffff16021790555050565b3373ffffffffffffffffffffffffffffffffffffffff16600760069054906101000a900473ffffffffffffffffffffffffffffffffffffffff1673ffffffffffffffffffffffffffffffffffffffff16636352211e846040518263ffffffff1660e01b8152600401610604919061155d565b602060405180830381865afa158015610621573d6000803e3d6000fd5b505050506040513d601f19601f82011682018060405250810190610645919061197d565b73ffffffffffffffffffffffffffffffffffffffff161461066557600080fd5b600960009054906101000a900460ff1660ff168160ff161061068657600080fd5b600b54341461069457600080fd5b60006106a06001610f21565b9050826008600083815260200190815260200160002060000181905550816008600083815260200190815260200160002060010160006101000a81548160ff021916908360ff160217905550505050565b60008060009054906101000a900473ffffffffffffffffffffffffffffffffffffffff16905090565b610722610ddf565b80600760006101000a81548163ffffffff021916908363ffffffff16021790555050565b60026020528060005260406000206000915090508060000160009054906101000a900460ff16908060000160019054906101000a900460ff16905082565b61078c610ddf565b8060068190555050565b61079e610ddf565b80600b8190555050565b600060606002600084815260200190815260200160002060000160019054906101000a900460ff1661080f576040517f08c379a000000000000000000000000000000000000000000000000000000000815260040161080690611a07565b60405180910390fd5b6000600260008581526020019081526020016000206040518060600160405290816000820160009054906101000a900460ff161515151581526020016000820160019054906101000a900460ff16151515158152602001600182018054806020026020016040519081016040528092919081815260200182805480156108b457602002820191906000526020600020905b8154815260200190600101908083116108a0575b5050505050815250509050806000015181604001519250925050915091565b6108db610ddf565b80600360146101000a81548167ffffffffffffffff021916908367ffffffffffffffff16021790555050565b61090f610ddf565b600073ffffffffffffffffffffffffffffffffffffffff168173ffffffffffffffffffffffffffffffffffffffff160361097e576040517f08c379a000000000000000000000000000000000000000000000000000000000815260040161097590611a99565b60405180910390fd5b61098781610e5d565b50565b600a54341461099857600080fd5b6000600760069054906101000a900473ffffffffffffffffffffffffffffffffffffffff1673ffffffffffffffffffffffffffffffffffffffff166340d097c3336040518263ffffffff1660e01b81526004016109f59190611660565b6020604051808303816000875af1158015610a14573d6000803e3d6000fd5b505050506040513d601f19601f82011682018060405250810190610a389190611ace565b90503373ffffffffffffffffffffffffffffffffffffffff167fe7b7e9b42d28c73f9e20589e8f36315a656519db7b1627a2c9f37ca02daee06682604051610a80919061155d565b60405180910390a250565b60055481565b610a9b8282611150565b6000600960009054906101000a900460ff1660ff1682600081518110610ac457610ac3611afb565b5b6020026020010151610ad69190611b59565b90506008600084815260200190815260200160002060010160009054906101000a900460ff1660ff168160ff1603610c7357600760069054906101000a900473ffffffffffffffffffffffffffffffffffffffff1673ffffffffffffffffffffffffffffffffffffffff16630ce90ec260086000868152602001908152602001600020600001546040518263ffffffff1660e01b8152600401610b79919061155d565b600060405180830381600087803b158015610b9357600080fd5b505af1158015610ba7573d6000803e3d6000fd5b505050506008600084815260200190815260200160002060010160019054906101000a900473ffffffffffffffffffffffffffffffffffffffff1673ffffffffffffffffffffffffffffffffffffffff167f075a206beba0a56b8a982e24b01d6b00c06d2b9092b65a9a35c10039677da9a86008600086815260200190815260200160002060010160009054906101000a900460ff1660086000878152602001908152602001600020600001548685604051610c669493929190611b99565b60405180910390a2610dda565b600760069054906101000a900473ffffffffffffffffffffffffffffffffffffffff1673ffffffffffffffffffffffffffffffffffffffff166342966c6860086000868152602001908152602001600020600001546040518263ffffffff1660e01b8152600401610ce4919061155d565b600060405180830381600087803b158015610cfe57600080fd5b505af1158015610d12573d6000803e3d6000fd5b505050506008600084815260200190815260200160002060010160019054906101000a900473ffffffffffffffffffffffffffffffffffffffff1673ffffffffffffffffffffffffffffffffffffffff167f6310786b4b6ef165e4c27a4eec76e05ccb9fea1da7b4a46f0b763fceaf78ab726008600086815260200190815260200160002060010160009054906101000a900460ff1660086000878152602001908152602001600020600001548685604051610dd19493929190611b99565b60405180910390a25b505050565b610de761124a565b73ffffffffffffffffffffffffffffffffffffffff16610e056106f1565b73ffffffffffffffffffffffffffffffffffffffff1614610e5b576040517f08c379a0000000000000000000000000000000000000000000000000000000008152600401610e5290611c2a565b60405180910390fd5b565b60008060009054906101000a900473ffffffffffffffffffffffffffffffffffffffff169050816000806101000a81548173ffffffffffffffffffffffffffffffffffffffff021916908373ffffffffffffffffffffffffffffffffffffffff1602179055508173ffffffffffffffffffffffffffffffffffffffff168173ffffffffffffffffffffffffffffffffffffffff167f8be0079c531659141344cd1fd0a4f28419497f9722a3daafe3b4186f6b6457e060405160405180910390a35050565b6000600360009054906101000a900473ffffffffffffffffffffffffffffffffffffffff1673ffffffffffffffffffffffffffffffffffffffff16635d3b1d30600654600360149054906101000a900467ffffffffffffffff16600760049054906101000a900461ffff16600760009054906101000a900463ffffffff16876040518663ffffffff1660e01b8152600401610fc0959493929190611c86565b6020604051808303816000875af1158015610fdf573d6000803e3d6000fd5b505050506040513d601f19601f820116820180604052508101906110039190611ace565b90506040518060600160405280600015158152602001600115158152602001600067ffffffffffffffff81111561103d5761103c61131c565b5b60405190808252806020026020018201604052801561106b5781602001602082028036833780820191505090505b508152506002600083815260200190815260200160002060008201518160000160006101000a81548160ff02191690831515021790555060208201518160000160016101000a81548160ff02191690831515021790555060408201518160010190805190602001906110de929190611252565b509050506004819080600181540180825580915050600190039060005260206000200160009091909190915055806005819055507fcc58b13ad3eab50626c6a6300b1d139cd6ebb1688a7cced9461c2f7e762665ee8183604051611143929190611cd9565b60405180910390a1919050565b6002600083815260200190815260200160002060000160019054906101000a900460ff166111b3576040517f08c379a00000000000000000000000000000000000000000000000000000000081526004016111aa90611a07565b60405180910390fd5b60016002600084815260200190815260200160002060000160006101000a81548160ff0219169083151502179055508060026000848152602001908152602001600020600101908051906020019061120c929190611252565b507ffe2e2d779dba245964d4e3ef9b994be63856fd568bf7d3ca9e224755cb1bd54d828260405161123e929190611d02565b60405180910390a15050565b600033905090565b82805482825590600052602060002090810192821561128e579160200282015b8281111561128d578251825591602001919060010190611272565b5b50905061129b919061129f565b5090565b5b808211156112b85760008160009055506001016112a0565b5090565b6000604051905090565b600080fd5b600080fd5b6000819050919050565b6112e3816112d0565b81146112ee57600080fd5b50565b600081359050611300816112da565b92915050565b600080fd5b6000601f19601f8301169050919050565b7f4e487b7100000000000000000000000000000000000000000000000000000000600052604160045260246000fd5b6113548261130b565b810181811067ffffffffffffffff821117156113735761137261131c565b5b80604052505050565b60006113866112bc565b9050611392828261134b565b919050565b600067ffffffffffffffff8211156113b2576113b161131c565b5b602082029050602081019050919050565b600080fd5b60006113db6113d684611397565b61137c565b905080838252602082019050602084028301858111156113fe576113fd6113c3565b5b835b81811015611427578061141388826112f1565b845260208401935050602081019050611400565b5050509392505050565b600082601f83011261144657611445611306565b5b81356114568482602086016113c8565b91505092915050565b60008060408385031215611476576114756112c6565b5b6000611484858286016112f1565b925050602083013567ffffffffffffffff8111156114a5576114a46112cb565b5b6114b185828601611431565b9150509250929050565b600060ff82169050919050565b6114d1816114bb565b81146114dc57600080fd5b50565b6000813590506114ee816114c8565b92915050565b60006020828403121561150a576115096112c6565b5b6000611518848285016114df565b91505092915050565b600060208284031215611537576115366112c6565b5b6000611545848285016112f1565b91505092915050565b611557816112d0565b82525050565b6000602082019050611572600083018461154e565b92915050565b600061ffff82169050919050565b61158f81611578565b811461159a57600080fd5b50565b6000813590506115ac81611586565b92915050565b6000602082840312156115c8576115c76112c6565b5b60006115d68482850161159d565b91505092915050565b600080604083850312156115f6576115f56112c6565b5b6000611604858286016112f1565b9250506020611615858286016114df565b9150509250929050565b600073ffffffffffffffffffffffffffffffffffffffff82169050919050565b600061164a8261161f565b9050919050565b61165a8161163f565b82525050565b60006020820190506116756000830184611651565b92915050565b600063ffffffff82169050919050565b6116948161167b565b811461169f57600080fd5b50565b6000813590506116b18161168b565b92915050565b6000602082840312156116cd576116cc6112c6565b5b60006116db848285016116a2565b91505092915050565b60008115159050919050565b6116f9816116e4565b82525050565b600060408201905061171460008301856116f0565b61172160208301846116f0565b9392505050565b6000819050919050565b61173b81611728565b811461174657600080fd5b50565b60008135905061175881611732565b92915050565b600060208284031215611774576117736112c6565b5b600061178284828501611749565b91505092915050565b600081519050919050565b600082825260208201905092915050565b6000819050602082019050919050565b6117c0816112d0565b82525050565b60006117d283836117b7565b60208301905092915050565b6000602082019050919050565b60006117f68261178b565b6118008185611796565b935061180b836117a7565b8060005b8381101561183c57815161182388826117c6565b975061182e836117de565b92505060018101905061180f565b5085935050505092915050565b600060408201905061185e60008301856116f0565b818103602083015261187081846117eb565b90509392505050565b600067ffffffffffffffff82169050919050565b61189681611879565b81146118a157600080fd5b50565b6000813590506118b38161188d565b92915050565b6000602082840312156118cf576118ce6112c6565b5b60006118dd848285016118a4565b91505092915050565b6118ef8161163f565b81146118fa57600080fd5b50565b60008135905061190c816118e6565b92915050565b600060208284031215611928576119276112c6565b5b6000611936848285016118fd565b91505092915050565b60006040820190506119546000830185611651565b6119616020830184611651565b9392505050565b600081519050611977816118e6565b92915050565b600060208284031215611993576119926112c6565b5b60006119a184828501611968565b91505092915050565b600082825260208201905092915050565b7f72657175657374206e6f7420666f756e64000000000000000000000000000000600082015250565b60006119f16011836119aa565b91506119fc826119bb565b602082019050919050565b60006020820190508181036000830152611a20816119e4565b9050919050565b7f4f776e61626c653a206e6577206f776e657220697320746865207a65726f206160008201527f6464726573730000000000000000000000000000000000000000000000000000602082015250565b6000611a836026836119aa565b9150611a8e82611a27565b604082019050919050565b60006020820190508181036000830152611ab281611a76565b9050919050565b600081519050611ac8816112da565b92915050565b600060208284031215611ae457611ae36112c6565b5b6000611af284828501611ab9565b91505092915050565b7f4e487b7100000000000000000000000000000000000000000000000000000000600052603260045260246000fd5b7f4e487b7100000000000000000000000000000000000000000000000000000000600052601260045260246000fd5b6000611b64826112d0565b9150611b6f836112d0565b925082611b7f57611b7e611b2a565b5b828206905092915050565b611b93816114bb565b82525050565b6000608082019050611bae6000830187611b8a565b611bbb602083018661154e565b611bc8604083018561154e565b611bd56060830184611b8a565b95945050505050565b7f4f776e61626c653a2063616c6c6572206973206e6f7420746865206f776e6572600082015250565b6000611c146020836119aa565b9150611c1f82611bde565b602082019050919050565b60006020820190508181036000830152611c4381611c07565b9050919050565b611c5381611728565b82525050565b611c6281611879565b82525050565b611c7181611578565b82525050565b611c808161167b565b82525050565b600060a082019050611c9b6000830188611c4a565b611ca86020830187611c59565b611cb56040830186611c68565b611cc26060830185611c77565b611ccf6080830184611c77565b9695505050505050565b6000604082019050611cee600083018561154e565b611cfb6020830184611c77565b9392505050565b6000604082019050611d17600083018561154e565b8181036020830152611d2981846117eb565b9050939250505056fea2646970667358221220652369ca0f593e9d9fd99da5213966e27ca7c94a8610bd406cbaee0a0d891ee664736f6c63430008110033",
  "immutableReferences": {
    "10": [
      {
        "length": 32,
        "start": 996
      },
      {
        "length": 32,
        "start": 1080
      }
    ]
  },
  "source": "// SPDX-License-Identifier: MIT\r\npragma solidity ^0.8.9;\r\n\r\nimport \"@openzeppelin/contracts/security/ReentrancyGuard.sol\";\r\nimport \"@openzeppelin/contracts/access/Ownable.sol\";\r\n\r\nimport \"./interfaces/IERC721Weapon.sol\";\r\nimport \"./VRFV2Consumer.sol\";\r\n\r\ncontract Game is Ownable, ReentrancyGuard, VRFV2Consumer {\r\n    IERC721Weapon gameAddress;\r\n\r\n    struct Upgrades {\r\n        uint256 tokenId;\r\n        uint8 luckValue;\r\n        address sender;\r\n    }\r\n\r\n    mapping(uint256 => Upgrades) upgrades;\r\n    uint8 difficulty;\r\n    uint256 nftPrice;\r\n    uint256 nftUpgrade;\r\n\r\n    event NFTBought(\r\n        address indexed owner,\r\n        uint256 tokenId\r\n    );\r\n\r\n    event Upgrade(\r\n        address indexed owner,\r\n        uint8 luckValue,\r\n        uint256 nftId,\r\n        uint256 chainlinkId\r\n    );\r\n\r\n    event UpgradeFail(\r\n        address indexed owner,\r\n        uint8 luckValue,\r\n        uint256 nftId,\r\n        uint256 chainlinkId,\r\n        uint8 resultValue\r\n    );\r\n\r\n    event UpgradeSuccess(\r\n        address indexed owner,\r\n        uint8 luckValue,\r\n        uint256 nftId,\r\n        uint256 chainlinkId,\r\n        uint8 resultValue\r\n    );\r\n\r\n\r\n    constructor(\r\n        address _nftWeaponAddress,\r\n        uint64 _subscriptionId,\r\n        address _cordinatorAddress,\r\n        bytes32 _keyHash,\r\n        uint256 _nftPrice,\r\n        uint256 _upgradePrice,\r\n        uint8 _difficulty\r\n    ) VRFV2Consumer(_subscriptionId, _cordinatorAddress, _keyHash) {\r\n        gameAddress = IERC721Weapon(_nftWeaponAddress);\r\n        \r\n        nftPrice = _nftPrice;\r\n        nftUpgrade = _upgradePrice;\r\n        difficulty = _difficulty;\r\n    }\r\n\r\n    function forgeUpgradeWeapon(uint256 _tokenId, uint8 _luckValue) external payable {\r\n        require(gameAddress.ownerOf(_tokenId) == msg.sender);\r\n        require(_luckValue < difficulty);\r\n        require(msg.value == nftUpgrade);\r\n\r\n        uint256 chainlinkRequest = requestRandomWords(1);\r\n        upgrades[chainlinkRequest].tokenId = _tokenId;\r\n        upgrades[chainlinkRequest].luckValue = _luckValue;\r\n    }\r\n\r\n    function buyWeapon() external payable {\r\n        require(msg.value == nftPrice);\r\n        uint256 tokenId = gameAddress.safeMint(msg.sender);\r\n        emit NFTBought(msg.sender, tokenId);\r\n    }\r\n\r\n    function fulfillRandomWords(\r\n        uint256 _requestId,\r\n        uint256[] memory _randomWords\r\n    ) internal override {\r\n        super.fulfillRandomWords(_requestId, _randomWords);\r\n        uint8 result = uint8(_randomWords[0] % difficulty);\r\n        if (result == upgrades[_requestId].luckValue) {\r\n            gameAddress.levelUp(upgrades[_requestId].tokenId);\r\n            emit UpgradeSuccess(\r\n                upgrades[_requestId].sender,\r\n                upgrades[_requestId].luckValue,\r\n                upgrades[_requestId].tokenId,\r\n                _requestId,\r\n                result\r\n            );\r\n        } else {\r\n            gameAddress.burn(upgrades[_requestId].tokenId);\r\n            emit UpgradeFail(\r\n                upgrades[_requestId].sender,\r\n                upgrades[_requestId].luckValue,\r\n                upgrades[_requestId].tokenId,\r\n                _requestId,\r\n                result\r\n            );\r\n        }\r\n    }\r\n\r\n    function setDifficulty(uint8 newValue) external onlyOwner {\r\n        difficulty = newValue;\r\n    }\r\n\r\n    function setNftPrice(uint256 newValue) external onlyOwner {\r\n        nftPrice = newValue;\r\n    }\r\n\r\n    function setNftUpgrade(uint256 newValue) external onlyOwner {\r\n        nftUpgrade = newValue;\r\n    }\r\n\r\n    // This method is just for test\r\n    function getFunds() external onlyOwner {\r\n        payable(owner()).transfer(address(this).balance);\r\n    }\r\n}\r\n",
  "sourcePath": "C:\\projetos\\pessoais\\forge_weapons\\Truffle\\contracts\\Game.sol",
  "compiler": {
    "name": "solc",
    "version": "0.8.17+commit.8df45f5f.Emscripten.clang"
  },
  "schemaVersion": "3.4.14",
  "updatedAt": "2023-06-08T18:58:12.376Z",
  "networkType": "ethereum",
  "devdoc": {
    "kind": "dev",
    "methods": {
      "owner()": {
        "details": "Returns the address of the current owner."
      },
      "renounceOwnership()": {
        "details": "Leaves the contract without owner. It will not be possible to call `onlyOwner` functions anymore. Can only be called by the current owner. NOTE: Renouncing ownership will leave the contract without an owner, thereby removing any functionality that is only available to the owner."
      },
      "transferOwnership(address)": {
        "details": "Transfers ownership of the contract to a new account (`newOwner`). Can only be called by the current owner."
      }
    },
    "version": 1
  },
  "userdoc": {
    "kind": "user",
    "methods": {},
    "version": 1
  }
}