{
  "contractName": "NFTWeapon",
  "abi": [
    {
      "inputs": [],
      "stateMutability": "nonpayable",
      "type": "constructor"
    },
    {
      "anonymous": false,
      "inputs": [
        {
          "indexed": true,
          "internalType": "address",
          "name": "owner",
          "type": "address"
        },
        {
          "indexed": true,
          "internalType": "address",
          "name": "approved",
          "type": "address"
        },
        {
          "indexed": true,
          "internalType": "uint256",
          "name": "tokenId",
          "type": "uint256"
        }
      ],
      "name": "Approval",
      "type": "event"
    },
    {
      "anonymous": false,
      "inputs": [
        {
          "indexed": true,
          "internalType": "address",
          "name": "owner",
          "type": "address"
        },
        {
          "indexed": true,
          "internalType": "address",
          "name": "operator",
          "type": "address"
        },
        {
          "indexed": false,
          "internalType": "bool",
          "name": "approved",
          "type": "bool"
        }
      ],
      "name": "ApprovalForAll",
      "type": "event"
    },
    {
      "anonymous": false,
      "inputs": [
        {
          "indexed": true,
          "internalType": "address",
          "name": "previousOwner",
          "type": "address"
        },
        {
          "indexed": true,
          "internalType": "address",
          "name": "newOwner",
          "type": "address"
        }
      ],
      "name": "OwnershipTransferred",
      "type": "event"
    },
    {
      "anonymous": false,
      "inputs": [
        {
          "indexed": true,
          "internalType": "address",
          "name": "from",
          "type": "address"
        },
        {
          "indexed": true,
          "internalType": "address",
          "name": "to",
          "type": "address"
        },
        {
          "indexed": true,
          "internalType": "uint256",
          "name": "tokenId",
          "type": "uint256"
        }
      ],
      "name": "Transfer",
      "type": "event"
    },
    {
      "inputs": [
        {
          "internalType": "address",
          "name": "to",
          "type": "address"
        },
        {
          "internalType": "uint256",
          "name": "tokenId",
          "type": "uint256"
        }
      ],
      "name": "approve",
      "outputs": [],
      "stateMutability": "nonpayable",
      "type": "function"
    },
    {
      "inputs": [
        {
          "internalType": "address",
          "name": "owner",
          "type": "address"
        }
      ],
      "name": "balanceOf",
      "outputs": [
        {
          "internalType": "uint256",
          "name": "",
          "type": "uint256"
        }
      ],
      "stateMutability": "view",
      "type": "function",
      "constant": true
    },
    {
      "inputs": [
        {
          "internalType": "uint256",
          "name": "tokenId",
          "type": "uint256"
        }
      ],
      "name": "getApproved",
      "outputs": [
        {
          "internalType": "address",
          "name": "",
          "type": "address"
        }
      ],
      "stateMutability": "view",
      "type": "function",
      "constant": true
    },
    {
      "inputs": [
        {
          "internalType": "address",
          "name": "owner",
          "type": "address"
        },
        {
          "internalType": "address",
          "name": "operator",
          "type": "address"
        }
      ],
      "name": "isApprovedForAll",
      "outputs": [
        {
          "internalType": "bool",
          "name": "",
          "type": "bool"
        }
      ],
      "stateMutability": "view",
      "type": "function",
      "constant": true
    },
    {
      "inputs": [],
      "name": "name",
      "outputs": [
        {
          "internalType": "string",
          "name": "",
          "type": "string"
        }
      ],
      "stateMutability": "view",
      "type": "function",
      "constant": true
    },
    {
      "inputs": [],
      "name": "owner",
      "outputs": [
        {
          "internalType": "address",
          "name": "",
          "type": "address"
        }
      ],
      "stateMutability": "view",
      "type": "function",
      "constant": true
    },
    {
      "inputs": [
        {
          "internalType": "uint256",
          "name": "tokenId",
          "type": "uint256"
        }
      ],
      "name": "ownerOf",
      "outputs": [
        {
          "internalType": "address",
          "name": "",
          "type": "address"
        }
      ],
      "stateMutability": "view",
      "type": "function",
      "constant": true
    },
    {
      "inputs": [],
      "name": "renounceOwnership",
      "outputs": [],
      "stateMutability": "nonpayable",
      "type": "function"
    },
    {
      "inputs": [
        {
          "internalType": "address",
          "name": "from",
          "type": "address"
        },
        {
          "internalType": "address",
          "name": "to",
          "type": "address"
        },
        {
          "internalType": "uint256",
          "name": "tokenId",
          "type": "uint256"
        }
      ],
      "name": "safeTransferFrom",
      "outputs": [],
      "stateMutability": "nonpayable",
      "type": "function"
    },
    {
      "inputs": [
        {
          "internalType": "address",
          "name": "from",
          "type": "address"
        },
        {
          "internalType": "address",
          "name": "to",
          "type": "address"
        },
        {
          "internalType": "uint256",
          "name": "tokenId",
          "type": "uint256"
        },
        {
          "internalType": "bytes",
          "name": "data",
          "type": "bytes"
        }
      ],
      "name": "safeTransferFrom",
      "outputs": [],
      "stateMutability": "nonpayable",
      "type": "function"
    },
    {
      "inputs": [
        {
          "internalType": "address",
          "name": "operator",
          "type": "address"
        },
        {
          "internalType": "bool",
          "name": "approved",
          "type": "bool"
        }
      ],
      "name": "setApprovalForAll",
      "outputs": [],
      "stateMutability": "nonpayable",
      "type": "function"
    },
    {
      "inputs": [
        {
          "internalType": "bytes4",
          "name": "interfaceId",
          "type": "bytes4"
        }
      ],
      "name": "supportsInterface",
      "outputs": [
        {
          "internalType": "bool",
          "name": "",
          "type": "bool"
        }
      ],
      "stateMutability": "view",
      "type": "function",
      "constant": true
    },
    {
      "inputs": [],
      "name": "symbol",
      "outputs": [
        {
          "internalType": "string",
          "name": "",
          "type": "string"
        }
      ],
      "stateMutability": "view",
      "type": "function",
      "constant": true
    },
    {
      "inputs": [
        {
          "internalType": "address",
          "name": "from",
          "type": "address"
        },
        {
          "internalType": "address",
          "name": "to",
          "type": "address"
        },
        {
          "internalType": "uint256",
          "name": "tokenId",
          "type": "uint256"
        }
      ],
      "name": "transferFrom",
      "outputs": [],
      "stateMutability": "nonpayable",
      "type": "function"
    },
    {
      "inputs": [
        {
          "internalType": "address",
          "name": "newOwner",
          "type": "address"
        }
      ],
      "name": "transferOwnership",
      "outputs": [],
      "stateMutability": "nonpayable",
      "type": "function"
    },
    {
      "inputs": [
        {
          "internalType": "address",
          "name": "to",
          "type": "address"
        }
      ],
      "name": "safeMint",
      "outputs": [
        {
          "internalType": "uint256",
          "name": "tokenId",
          "type": "uint256"
        }
      ],
      "stateMutability": "nonpayable",
      "type": "function"
    },
    {
      "inputs": [
        {
          "internalType": "uint256",
          "name": "_tokenId",
          "type": "uint256"
        }
      ],
      "name": "levelUp",
      "outputs": [],
      "stateMutability": "nonpayable",
      "type": "function"
    },
    {
      "inputs": [
        {
          "internalType": "uint256",
          "name": "_tokenId",
          "type": "uint256"
        }
      ],
      "name": "burn",
      "outputs": [],
      "stateMutability": "nonpayable",
      "type": "function"
    },
    {
      "inputs": [
        {
          "internalType": "uint256",
          "name": "_tokenId",
          "type": "uint256"
        }
      ],
      "name": "getNftPower",
      "outputs": [
        {
          "internalType": "uint32",
          "name": "_power",
          "type": "uint32"
        }
      ],
      "stateMutability": "view",
      "type": "function",
      "constant": true
    },
    {
      "inputs": [
        {
          "internalType": "address",
          "name": "_gameAddress",
          "type": "address"
        }
      ],
      "name": "setGameAddress",
      "outputs": [],
      "stateMutability": "nonpayable",
      "type": "function"
    },
    {
      "inputs": [
        {
          "internalType": "uint32",
          "name": "level",
          "type": "uint32"
        },
        {
          "internalType": "string",
          "name": "value",
          "type": "string"
        }
      ],
      "name": "setMetadata",
      "outputs": [],
      "stateMutability": "nonpayable",
      "type": "function"
    },
    {
      "inputs": [
        {
          "internalType": "uint32",
          "name": "level",
          "type": "uint32"
        }
      ],
      "name": "getMetadata",
      "outputs": [
        {
          "internalType": "string",
          "name": "_result",
          "type": "string"
        }
      ],
      "stateMutability": "view",
      "type": "function",
      "constant": true
    },
    {
      "inputs": [
        {
          "internalType": "uint256",
          "name": "_tokenId",
          "type": "uint256"
        }
      ],
      "name": "tokenURI",
      "outputs": [
        {
          "internalType": "string",
          "name": "",
          "type": "string"
        }
      ],
      "stateMutability": "view",
      "type": "function",
      "constant": true
    }
  ],
  "bytecode": "0x60806040523480156200001157600080fd5b506040518060400160405280600981526020017f4e4654576561706f6e00000000000000000000000000000000000000000000008152506040518060400160405280600381526020017f57504e000000000000000000000000000000000000000000000000000000000081525081600090816200008f9190620004da565b508060019081620000a19190620004da565b505050620000c4620000b86200019260201b60201c565b6200019a60201b60201c565b6040518060600160405280602e81526020016200374b602e9139600960008063ffffffff1681526020019081526020016000209081620001059190620004da565b506040518060600160405280602e8152602001620036ef602e913960096000600163ffffffff1681526020019081526020016000209081620001489190620004da565b506040518060600160405280602e81526020016200371d602e913960096000600263ffffffff16815260200190815260200160002090816200018b9190620004da565b50620005c1565b600033905090565b6000600660009054906101000a900473ffffffffffffffffffffffffffffffffffffffff16905081600660006101000a81548173ffffffffffffffffffffffffffffffffffffffff021916908373ffffffffffffffffffffffffffffffffffffffff1602179055508173ffffffffffffffffffffffffffffffffffffffff168173ffffffffffffffffffffffffffffffffffffffff167f8be0079c531659141344cd1fd0a4f28419497f9722a3daafe3b4186f6b6457e060405160405180910390a35050565b600081519050919050565b7f4e487b7100000000000000000000000000000000000000000000000000000000600052604160045260246000fd5b7f4e487b7100000000000000000000000000000000000000000000000000000000600052602260045260246000fd5b60006002820490506001821680620002e257607f821691505b602082108103620002f857620002f76200029a565b5b50919050565b60008190508160005260206000209050919050565b60006020601f8301049050919050565b600082821b905092915050565b600060088302620003627fffffffffffffffffffffffffffffffffffffffffffffffffffffffffffffffff8262000323565b6200036e868362000323565b95508019841693508086168417925050509392505050565b6000819050919050565b6000819050919050565b6000620003bb620003b5620003af8462000386565b62000390565b62000386565b9050919050565b6000819050919050565b620003d7836200039a565b620003ef620003e682620003c2565b84845462000330565b825550505050565b600090565b62000406620003f7565b62000413818484620003cc565b505050565b5b818110156200043b576200042f600082620003fc565b60018101905062000419565b5050565b601f8211156200048a576200045481620002fe565b6200045f8462000313565b810160208510156200046f578190505b620004876200047e8562000313565b83018262000418565b50505b505050565b600082821c905092915050565b6000620004af600019846008026200048f565b1980831691505092915050565b6000620004ca83836200049c565b9150826002028217905092915050565b620004e58262000260565b67ffffffffffffffff8111156200050157620005006200026b565b5b6200050d8254620002c9565b6200051a8282856200043f565b600060209050601f8311600181146200055257600084156200053d578287015190505b620005498582620004bc565b865550620005b9565b601f1984166200056286620002fe565b60005b828110156200058c5784890151825560018201915060208501945060208101905062000565565b86831015620005ac5784890151620005a8601f8916826200049c565b8355505b6001600288020188555050505b505050505050565b61311e80620005d16000396000f3fe608060405234801561001057600080fd5b506004361061014d5760003560e01c80636352211e116100c3578063a22cb4651161007c578063a22cb4651461039a578063ad254c1e146103b6578063b88d4fde146103e6578063c87b56dd14610402578063e985e9c514610432578063f2fde38b146104625761014d565b80636352211e146102d857806370a0823114610308578063711953ef14610338578063715018a6146103545780638da5cb5b1461035e57806395d89b411461037c5761014d565b806319522bd11161011557806319522bd11461020857806323b872dd1461022457806340d097c314610240578063412e8a291461027057806342842e0e146102a057806342966c68146102bc5761014d565b806301ffc9a71461015257806306fdde0314610182578063081812fc146101a0578063095ea7b3146101d05780630ce90ec2146101ec575b600080fd5b61016c60048036038101906101679190611e25565b61047e565b6040516101799190611e6d565b60405180910390f35b61018a610560565b6040516101979190611f18565b60405180910390f35b6101ba60048036038101906101b59190611f70565b6105f2565b6040516101c79190611fde565b60405180910390f35b6101ea60048036038101906101e59190612025565b610638565b005b61020660048036038101906102019190611f70565b61074f565b005b610222600480360381019061021d91906121d6565b6107fd565b005b61023e60048036038101906102399190612232565b610836565b005b61025a60048036038101906102559190612285565b610896565b60405161026791906122c1565b60405180910390f35b61028a60048036038101906102859190611f70565b61094a565b60405161029791906122eb565b60405180910390f35b6102ba60048036038101906102b59190612232565b610980565b005b6102d660048036038101906102d19190611f70565b6109a0565b005b6102f260048036038101906102ed9190611f70565b610a2c565b6040516102ff9190611fde565b60405180910390f35b610322600480360381019061031d9190612285565b610ab2565b60405161032f91906122c1565b60405180910390f35b610352600480360381019061034d9190612285565b610b69565b005b61035c610bb5565b005b610366610bc9565b6040516103739190611fde565b60405180910390f35b610384610bf3565b6040516103919190611f18565b60405180910390f35b6103b460048036038101906103af9190612332565b610c85565b005b6103d060048036038101906103cb9190612372565b610c9b565b6040516103dd9190611f18565b60405180910390f35b61040060048036038101906103fb9190612440565b610d4c565b005b61041c60048036038101906104179190611f70565b610dae565b6040516104299190611f18565b60405180910390f35b61044c600480360381019061044791906124c3565b610e36565b6040516104599190611e6d565b60405180910390f35b61047c60048036038101906104779190612285565b610eca565b005b60007f80ac58cd000000000000000000000000000000000000000000000000000000007bffffffffffffffffffffffffffffffffffffffffffffffffffffffff1916827bffffffffffffffffffffffffffffffffffffffffffffffffffffffff1916148061054957507f5b5e139f000000000000000000000000000000000000000000000000000000007bffffffffffffffffffffffffffffffffffffffffffffffffffffffff1916827bffffffffffffffffffffffffffffffffffffffffffffffffffffffff1916145b80610559575061055882610f4d565b5b9050919050565b60606000805461056f90612532565b80601f016020809104026020016040519081016040528092919081815260200182805461059b90612532565b80156105e85780601f106105bd576101008083540402835291602001916105e8565b820191906000526020600020905b8154815290600101906020018083116105cb57829003601f168201915b5050505050905090565b60006105fd82610fb7565b6004600083815260200190815260200160002060009054906101000a900473ffffffffffffffffffffffffffffffffffffffff169050919050565b600061064382610a2c565b90508073ffffffffffffffffffffffffffffffffffffffff168373ffffffffffffffffffffffffffffffffffffffff16036106b3576040517f08c379a00000000000000000000000000000000000000000000000000000000081526004016106aa906125d5565b60405180910390fd5b8073ffffffffffffffffffffffffffffffffffffffff166106d2611002565b73ffffffffffffffffffffffffffffffffffffffff1614806107015750610700816106fb611002565b610e36565b5b610740576040517f08c379a000000000000000000000000000000000000000000000000000000000815260040161073790612667565b60405180910390fd5b61074a838361100a565b505050565b600760009054906101000a900473ffffffffffffffffffffffffffffffffffffffff1673ffffffffffffffffffffffffffffffffffffffff163373ffffffffffffffffffffffffffffffffffffffff16146107a957600080fd5b6001600a600083815260200190815260200160002060008282829054906101000a900463ffffffff166107dc91906126b6565b92506101000a81548163ffffffff021916908363ffffffff16021790555050565b6108056110c3565b80600960008463ffffffff1663ffffffff1681526020019081526020016000209081610831919061289a565b505050565b610847610841611002565b82611141565b610886576040517f08c379a000000000000000000000000000000000000000000000000000000000815260040161087d906129de565b60405180910390fd5b6108918383836111d6565b505050565b6000600760009054906101000a900473ffffffffffffffffffffffffffffffffffffffff1673ffffffffffffffffffffffffffffffffffffffff163373ffffffffffffffffffffffffffffffffffffffff16146108f257600080fd5b6108fc60086114cf565b905061090860086114dd565b61091282826114f3565b6000600a600083815260200190815260200160002060006101000a81548163ffffffff021916908363ffffffff160217905550919050565b600061095582610fb7565b600a600083815260200190815260200160002060009054906101000a900463ffffffff169050919050565b61099b83838360405180602001604052806000815250610d4c565b505050565b600760009054906101000a900473ffffffffffffffffffffffffffffffffffffffff1673ffffffffffffffffffffffffffffffffffffffff163373ffffffffffffffffffffffffffffffffffffffff16146109fa57600080fd5b610a0381611511565b600a600082815260200190815260200160002060006101000a81549063ffffffff021916905550565b600080610a388361165f565b9050600073ffffffffffffffffffffffffffffffffffffffff168173ffffffffffffffffffffffffffffffffffffffff1603610aa9576040517f08c379a0000000000000000000000000000000000000000000000000000000008152600401610aa090612a4a565b60405180910390fd5b80915050919050565b60008073ffffffffffffffffffffffffffffffffffffffff168273ffffffffffffffffffffffffffffffffffffffff1603610b22576040517f08c379a0000000000000000000000000000000000000000000000000000000008152600401610b1990612adc565b60405180910390fd5b600360008373ffffffffffffffffffffffffffffffffffffffff1673ffffffffffffffffffffffffffffffffffffffff168152602001908152602001600020549050919050565b610b716110c3565b80600760006101000a81548173ffffffffffffffffffffffffffffffffffffffff021916908373ffffffffffffffffffffffffffffffffffffffff16021790555050565b610bbd6110c3565b610bc7600061169c565b565b6000600660009054906101000a900473ffffffffffffffffffffffffffffffffffffffff16905090565b606060018054610c0290612532565b80601f0160208091040260200160405190810160405280929190818152602001828054610c2e90612532565b8015610c7b5780601f10610c5057610100808354040283529160200191610c7b565b820191906000526020600020905b815481529060010190602001808311610c5e57829003601f168201915b5050505050905090565b610c97610c90611002565b8383611762565b5050565b6060600960008363ffffffff1663ffffffff1681526020019081526020016000208054610cc790612532565b80601f0160208091040260200160405190810160405280929190818152602001828054610cf390612532565b8015610d405780601f10610d1557610100808354040283529160200191610d40565b820191906000526020600020905b815481529060010190602001808311610d2357829003601f168201915b50505050509050919050565b610d5d610d57611002565b83611141565b610d9c576040517f08c379a0000000000000000000000000000000000000000000000000000000008152600401610d93906129de565b60405180910390fd5b610da8848484846118ce565b50505050565b6060610db982610fb7565b6000610dc361192a565b90506000600a600085815260200190815260200160002060009054906101000a900463ffffffff16905081600960008363ffffffff1663ffffffff168152602001908152602001600020604051602001610e1e929190612bbb565b60405160208183030381529060405292505050919050565b6000600560008473ffffffffffffffffffffffffffffffffffffffff1673ffffffffffffffffffffffffffffffffffffffff16815260200190815260200160002060008373ffffffffffffffffffffffffffffffffffffffff1673ffffffffffffffffffffffffffffffffffffffff16815260200190815260200160002060009054906101000a900460ff16905092915050565b610ed26110c3565b600073ffffffffffffffffffffffffffffffffffffffff168173ffffffffffffffffffffffffffffffffffffffff1603610f41576040517f08c379a0000000000000000000000000000000000000000000000000000000008152600401610f3890612c51565b60405180910390fd5b610f4a8161169c565b50565b60007f01ffc9a7000000000000000000000000000000000000000000000000000000007bffffffffffffffffffffffffffffffffffffffffffffffffffffffff1916827bffffffffffffffffffffffffffffffffffffffffffffffffffffffff1916149050919050565b610fc08161194a565b610fff576040517f08c379a0000000000000000000000000000000000000000000000000000000008152600401610ff690612a4a565b60405180910390fd5b50565b600033905090565b816004600083815260200190815260200160002060006101000a81548173ffffffffffffffffffffffffffffffffffffffff021916908373ffffffffffffffffffffffffffffffffffffffff160217905550808273ffffffffffffffffffffffffffffffffffffffff1661107d83610a2c565b73ffffffffffffffffffffffffffffffffffffffff167f8c5be1e5ebec7d5bd14f71427d1e84f3dd0314c0f7b2291e5b200ac8c7c3b92560405160405180910390a45050565b6110cb611002565b73ffffffffffffffffffffffffffffffffffffffff166110e9610bc9565b73ffffffffffffffffffffffffffffffffffffffff161461113f576040517f08c379a000000000000000000000000000000000000000000000000000000000815260040161113690612cbd565b60405180910390fd5b565b60008061114d83610a2c565b90508073ffffffffffffffffffffffffffffffffffffffff168473ffffffffffffffffffffffffffffffffffffffff16148061118f575061118e8185610e36565b5b806111cd57508373ffffffffffffffffffffffffffffffffffffffff166111b5846105f2565b73ffffffffffffffffffffffffffffffffffffffff16145b91505092915050565b8273ffffffffffffffffffffffffffffffffffffffff166111f682610a2c565b73ffffffffffffffffffffffffffffffffffffffff161461124c576040517f08c379a000000000000000000000000000000000000000000000000000000000815260040161124390612d4f565b60405180910390fd5b600073ffffffffffffffffffffffffffffffffffffffff168273ffffffffffffffffffffffffffffffffffffffff16036112bb576040517f08c379a00000000000000000000000000000000000000000000000000000000081526004016112b290612de1565b60405180910390fd5b6112c8838383600161198b565b8273ffffffffffffffffffffffffffffffffffffffff166112e882610a2c565b73ffffffffffffffffffffffffffffffffffffffff161461133e576040517f08c379a000000000000000000000000000000000000000000000000000000000815260040161133590612d4f565b60405180910390fd5b6004600082815260200190815260200160002060006101000a81549073ffffffffffffffffffffffffffffffffffffffff02191690556001600360008573ffffffffffffffffffffffffffffffffffffffff1673ffffffffffffffffffffffffffffffffffffffff168152602001908152602001600020600082825403925050819055506001600360008473ffffffffffffffffffffffffffffffffffffffff1673ffffffffffffffffffffffffffffffffffffffff16815260200190815260200160002060008282540192505081905550816002600083815260200190815260200160002060006101000a81548173ffffffffffffffffffffffffffffffffffffffff021916908373ffffffffffffffffffffffffffffffffffffffff160217905550808273ffffffffffffffffffffffffffffffffffffffff168473ffffffffffffffffffffffffffffffffffffffff167fddf252ad1be2c89b69c2b068fc378daa952ba7f163c4a11628f55a4df523b3ef60405160405180910390a46114ca8383836001611991565b505050565b600081600001549050919050565b6001816000016000828254019250508190555050565b61150d828260405180602001604052806000815250611997565b5050565b600061151c82610a2c565b905061152c81600084600161198b565b61153582610a2c565b90506004600083815260200190815260200160002060006101000a81549073ffffffffffffffffffffffffffffffffffffffff02191690556001600360008373ffffffffffffffffffffffffffffffffffffffff1673ffffffffffffffffffffffffffffffffffffffff168152602001908152602001600020600082825403925050819055506002600083815260200190815260200160002060006101000a81549073ffffffffffffffffffffffffffffffffffffffff021916905581600073ffffffffffffffffffffffffffffffffffffffff168273ffffffffffffffffffffffffffffffffffffffff167fddf252ad1be2c89b69c2b068fc378daa952ba7f163c4a11628f55a4df523b3ef60405160405180910390a461165b816000846001611991565b5050565b60006002600083815260200190815260200160002060009054906101000a900473ffffffffffffffffffffffffffffffffffffffff169050919050565b6000600660009054906101000a900473ffffffffffffffffffffffffffffffffffffffff16905081600660006101000a81548173ffffffffffffffffffffffffffffffffffffffff021916908373ffffffffffffffffffffffffffffffffffffffff1602179055508173ffffffffffffffffffffffffffffffffffffffff168173ffffffffffffffffffffffffffffffffffffffff167f8be0079c531659141344cd1fd0a4f28419497f9722a3daafe3b4186f6b6457e060405160405180910390a35050565b8173ffffffffffffffffffffffffffffffffffffffff168373ffffffffffffffffffffffffffffffffffffffff16036117d0576040517f08c379a00000000000000000000000000000000000000000000000000000000081526004016117c790612e4d565b60405180910390fd5b80600560008573ffffffffffffffffffffffffffffffffffffffff1673ffffffffffffffffffffffffffffffffffffffff16815260200190815260200160002060008473ffffffffffffffffffffffffffffffffffffffff1673ffffffffffffffffffffffffffffffffffffffff16815260200190815260200160002060006101000a81548160ff0219169083151502179055508173ffffffffffffffffffffffffffffffffffffffff168373ffffffffffffffffffffffffffffffffffffffff167f17307eab39ab6107e8899845ad3d59bd9653f200f220920489ca2b5937696c31836040516118c19190611e6d565b60405180910390a3505050565b6118d98484846111d6565b6118e5848484846119f2565b611924576040517f08c379a000000000000000000000000000000000000000000000000000000000815260040161191b90612edf565b60405180910390fd5b50505050565b60606040518060600160405280602e81526020016130bb602e9139905090565b60008073ffffffffffffffffffffffffffffffffffffffff1661196c8361165f565b73ffffffffffffffffffffffffffffffffffffffff1614159050919050565b50505050565b50505050565b6119a18383611b79565b6119ae60008484846119f2565b6119ed576040517f08c379a00000000000000000000000000000000000000000000000000000000081526004016119e490612edf565b60405180910390fd5b505050565b6000611a138473ffffffffffffffffffffffffffffffffffffffff16611d96565b15611b6c578373ffffffffffffffffffffffffffffffffffffffff1663150b7a02611a3c611002565b8786866040518563ffffffff1660e01b8152600401611a5e9493929190612f54565b6020604051808303816000875af1925050508015611a9a57506040513d601f19601f82011682018060405250810190611a979190612fb5565b60015b611b1c573d8060008114611aca576040519150601f19603f3d011682016040523d82523d6000602084013e611acf565b606091505b506000815103611b14576040517f08c379a0000000000000000000000000000000000000000000000000000000008152600401611b0b90612edf565b60405180910390fd5b805181602001fd5b63150b7a0260e01b7bffffffffffffffffffffffffffffffffffffffffffffffffffffffff1916817bffffffffffffffffffffffffffffffffffffffffffffffffffffffff191614915050611b71565b600190505b949350505050565b600073ffffffffffffffffffffffffffffffffffffffff168273ffffffffffffffffffffffffffffffffffffffff1603611be8576040517f08c379a0000000000000000000000000000000000000000000000000000000008152600401611bdf9061302e565b60405180910390fd5b611bf18161194a565b15611c31576040517f08c379a0000000000000000000000000000000000000000000000000000000008152600401611c289061309a565b60405180910390fd5b611c3f60008383600161198b565b611c488161194a565b15611c88576040517f08c379a0000000000000000000000000000000000000000000000000000000008152600401611c7f9061309a565b60405180910390fd5b6001600360008473ffffffffffffffffffffffffffffffffffffffff1673ffffffffffffffffffffffffffffffffffffffff16815260200190815260200160002060008282540192505081905550816002600083815260200190815260200160002060006101000a81548173ffffffffffffffffffffffffffffffffffffffff021916908373ffffffffffffffffffffffffffffffffffffffff160217905550808273ffffffffffffffffffffffffffffffffffffffff16600073ffffffffffffffffffffffffffffffffffffffff167fddf252ad1be2c89b69c2b068fc378daa952ba7f163c4a11628f55a4df523b3ef60405160405180910390a4611d92600083836001611991565b5050565b6000808273ffffffffffffffffffffffffffffffffffffffff163b119050919050565b6000604051905090565b600080fd5b600080fd5b60007fffffffff0000000000000000000000000000000000000000000000000000000082169050919050565b611e0281611dcd565b8114611e0d57600080fd5b50565b600081359050611e1f81611df9565b92915050565b600060208284031215611e3b57611e3a611dc3565b5b6000611e4984828501611e10565b91505092915050565b60008115159050919050565b611e6781611e52565b82525050565b6000602082019050611e826000830184611e5e565b92915050565b600081519050919050565b600082825260208201905092915050565b60005b83811015611ec2578082015181840152602081019050611ea7565b60008484015250505050565b6000601f19601f8301169050919050565b6000611eea82611e88565b611ef48185611e93565b9350611f04818560208601611ea4565b611f0d81611ece565b840191505092915050565b60006020820190508181036000830152611f328184611edf565b905092915050565b6000819050919050565b611f4d81611f3a565b8114611f5857600080fd5b50565b600081359050611f6a81611f44565b92915050565b600060208284031215611f8657611f85611dc3565b5b6000611f9484828501611f5b565b91505092915050565b600073ffffffffffffffffffffffffffffffffffffffff82169050919050565b6000611fc882611f9d565b9050919050565b611fd881611fbd565b82525050565b6000602082019050611ff36000830184611fcf565b92915050565b61200281611fbd565b811461200d57600080fd5b50565b60008135905061201f81611ff9565b92915050565b6000806040838503121561203c5761203b611dc3565b5b600061204a85828601612010565b925050602061205b85828601611f5b565b9150509250929050565b600063ffffffff82169050919050565b61207e81612065565b811461208957600080fd5b50565b60008135905061209b81612075565b92915050565b600080fd5b600080fd5b7f4e487b7100000000000000000000000000000000000000000000000000000000600052604160045260246000fd5b6120e382611ece565b810181811067ffffffffffffffff82111715612102576121016120ab565b5b80604052505050565b6000612115611db9565b905061212182826120da565b919050565b600067ffffffffffffffff821115612141576121406120ab565b5b61214a82611ece565b9050602081019050919050565b82818337600083830152505050565b600061217961217484612126565b61210b565b905082815260208101848484011115612195576121946120a6565b5b6121a0848285612157565b509392505050565b600082601f8301126121bd576121bc6120a1565b5b81356121cd848260208601612166565b91505092915050565b600080604083850312156121ed576121ec611dc3565b5b60006121fb8582860161208c565b925050602083013567ffffffffffffffff81111561221c5761221b611dc8565b5b612228858286016121a8565b9150509250929050565b60008060006060848603121561224b5761224a611dc3565b5b600061225986828701612010565b935050602061226a86828701612010565b925050604061227b86828701611f5b565b9150509250925092565b60006020828403121561229b5761229a611dc3565b5b60006122a984828501612010565b91505092915050565b6122bb81611f3a565b82525050565b60006020820190506122d660008301846122b2565b92915050565b6122e581612065565b82525050565b600060208201905061230060008301846122dc565b92915050565b61230f81611e52565b811461231a57600080fd5b50565b60008135905061232c81612306565b92915050565b6000806040838503121561234957612348611dc3565b5b600061235785828601612010565b92505060206123688582860161231d565b9150509250929050565b60006020828403121561238857612387611dc3565b5b60006123968482850161208c565b91505092915050565b600067ffffffffffffffff8211156123ba576123b96120ab565b5b6123c382611ece565b9050602081019050919050565b60006123e36123de8461239f565b61210b565b9050828152602081018484840111156123ff576123fe6120a6565b5b61240a848285612157565b509392505050565b600082601f830112612427576124266120a1565b5b81356124378482602086016123d0565b91505092915050565b6000806000806080858703121561245a57612459611dc3565b5b600061246887828801612010565b945050602061247987828801612010565b935050604061248a87828801611f5b565b925050606085013567ffffffffffffffff8111156124ab576124aa611dc8565b5b6124b787828801612412565b91505092959194509250565b600080604083850312156124da576124d9611dc3565b5b60006124e885828601612010565b92505060206124f985828601612010565b9150509250929050565b7f4e487b7100000000000000000000000000000000000000000000000000000000600052602260045260246000fd5b6000600282049050600182168061254a57607f821691505b60208210810361255d5761255c612503565b5b50919050565b7f4552433732313a20617070726f76616c20746f2063757272656e74206f776e6560008201527f7200000000000000000000000000000000000000000000000000000000000000602082015250565b60006125bf602183611e93565b91506125ca82612563565b604082019050919050565b600060208201905081810360008301526125ee816125b2565b9050919050565b7f4552433732313a20617070726f76652063616c6c6572206973206e6f7420746f60008201527f6b656e206f776e6572206f7220617070726f76656420666f7220616c6c000000602082015250565b6000612651603d83611e93565b915061265c826125f5565b604082019050919050565b6000602082019050818103600083015261268081612644565b9050919050565b7f4e487b7100000000000000000000000000000000000000000000000000000000600052601160045260246000fd5b60006126c182612065565b91506126cc83612065565b9250828201905063ffffffff8111156126e8576126e7612687565b5b92915050565b60008190508160005260206000209050919050565b60006020601f8301049050919050565b600082821b905092915050565b6000600883026127507fffffffffffffffffffffffffffffffffffffffffffffffffffffffffffffffff82612713565b61275a8683612713565b95508019841693508086168417925050509392505050565b6000819050919050565b600061279761279261278d84611f3a565b612772565b611f3a565b9050919050565b6000819050919050565b6127b18361277c565b6127c56127bd8261279e565b848454612720565b825550505050565b600090565b6127da6127cd565b6127e58184846127a8565b505050565b5b81811015612809576127fe6000826127d2565b6001810190506127eb565b5050565b601f82111561284e5761281f816126ee565b61282884612703565b81016020851015612837578190505b61284b61284385612703565b8301826127ea565b50505b505050565b600082821c905092915050565b600061287160001984600802612853565b1980831691505092915050565b600061288a8383612860565b9150826002028217905092915050565b6128a382611e88565b67ffffffffffffffff8111156128bc576128bb6120ab565b5b6128c68254612532565b6128d182828561280d565b600060209050601f83116001811461290457600084156128f2578287015190505b6128fc858261287e565b865550612964565b601f198416612912866126ee565b60005b8281101561293a57848901518255600182019150602085019450602081019050612915565b868310156129575784890151612953601f891682612860565b8355505b6001600288020188555050505b505050505050565b7f4552433732313a2063616c6c6572206973206e6f7420746f6b656e206f776e6560008201527f72206f7220617070726f76656400000000000000000000000000000000000000602082015250565b60006129c8602d83611e93565b91506129d38261296c565b604082019050919050565b600060208201905081810360008301526129f7816129bb565b9050919050565b7f4552433732313a20696e76616c696420746f6b656e2049440000000000000000600082015250565b6000612a34601883611e93565b9150612a3f826129fe565b602082019050919050565b60006020820190508181036000830152612a6381612a27565b9050919050565b7f4552433732313a2061646472657373207a65726f206973206e6f74206120766160008201527f6c6964206f776e65720000000000000000000000000000000000000000000000602082015250565b6000612ac6602983611e93565b9150612ad182612a6a565b604082019050919050565b60006020820190508181036000830152612af581612ab9565b9050919050565b600081905092915050565b6000612b1282611e88565b612b1c8185612afc565b9350612b2c818560208601611ea4565b80840191505092915050565b60008154612b4581612532565b612b4f8186612afc565b94506001821660008114612b6a5760018114612b7f57612bb2565b60ff1983168652811515820286019350612bb2565b612b88856126ee565b60005b83811015612baa57815481890152600182019150602081019050612b8b565b838801955050505b50505092915050565b6000612bc78285612b07565b9150612bd38284612b38565b91508190509392505050565b7f4f776e61626c653a206e6577206f776e657220697320746865207a65726f206160008201527f6464726573730000000000000000000000000000000000000000000000000000602082015250565b6000612c3b602683611e93565b9150612c4682612bdf565b604082019050919050565b60006020820190508181036000830152612c6a81612c2e565b9050919050565b7f4f776e61626c653a2063616c6c6572206973206e6f7420746865206f776e6572600082015250565b6000612ca7602083611e93565b9150612cb282612c71565b602082019050919050565b60006020820190508181036000830152612cd681612c9a565b9050919050565b7f4552433732313a207472616e736665722066726f6d20696e636f72726563742060008201527f6f776e6572000000000000000000000000000000000000000000000000000000602082015250565b6000612d39602583611e93565b9150612d4482612cdd565b604082019050919050565b60006020820190508181036000830152612d6881612d2c565b9050919050565b7f4552433732313a207472616e7366657220746f20746865207a65726f2061646460008201527f7265737300000000000000000000000000000000000000000000000000000000602082015250565b6000612dcb602483611e93565b9150612dd682612d6f565b604082019050919050565b60006020820190508181036000830152612dfa81612dbe565b9050919050565b7f4552433732313a20617070726f766520746f2063616c6c657200000000000000600082015250565b6000612e37601983611e93565b9150612e4282612e01565b602082019050919050565b60006020820190508181036000830152612e6681612e2a565b9050919050565b7f4552433732313a207472616e7366657220746f206e6f6e20455243373231526560008201527f63656976657220696d706c656d656e7465720000000000000000000000000000602082015250565b6000612ec9603283611e93565b9150612ed482612e6d565b604082019050919050565b60006020820190508181036000830152612ef881612ebc565b9050919050565b600081519050919050565b600082825260208201905092915050565b6000612f2682612eff565b612f308185612f0a565b9350612f40818560208601611ea4565b612f4981611ece565b840191505092915050565b6000608082019050612f696000830187611fcf565b612f766020830186611fcf565b612f8360408301856122b2565b8181036060830152612f958184612f1b565b905095945050505050565b600081519050612faf81611df9565b92915050565b600060208284031215612fcb57612fca611dc3565b5b6000612fd984828501612fa0565b91505092915050565b7f4552433732313a206d696e7420746f20746865207a65726f2061646472657373600082015250565b6000613018602083611e93565b915061302382612fe2565b602082019050919050565b600060208201905081810360008301526130478161300b565b9050919050565b7f4552433732313a20746f6b656e20616c7265616479206d696e74656400000000600082015250565b6000613084601c83611e93565b915061308f8261304e565b602082019050919050565b600060208201905081810360008301526130b381613077565b905091905056fe68747470733a2f2f636861696e6c696e6b626f6f7463616d702e696e667572612d697066732e696f2f697066732fa264697066735822122097dbfb1707b33ee68b152205b578ae3db1d6b7a60d5495fe0ec6a729cf53083b64736f6c63430008110033516d505a4c524e6b6a597277454c664e345753725a705a6e6466724a716675364a3579315664686a64745771374d516d63724d435a3738666436346838314155346d415551596a58436e546342544c58395135566a4e3242736f6b4e516d534451706d4471514e48423245785942766f63454a587734664c54366f526a474444446154413568754c6557",
  "immutableReferences": {},
  "source": "// SPDX-License-Identifier: MIT\r\npragma solidity ^0.8.9;\r\n\r\nimport \"@openzeppelin/contracts/token/ERC721/ERC721.sol\";\r\nimport \"@openzeppelin/contracts/access/Ownable.sol\";\r\nimport \"@openzeppelin/contracts/utils/Counters.sol\";\r\n\r\ncontract NFTWeapon is ERC721, Ownable {\r\n    using Counters for Counters.Counter;\r\n    address gameAddress;\r\n\r\n    Counters.Counter private _tokenIdCounter;\r\n\r\n    mapping(uint32 => string) metadata_values;\r\n    mapping(uint256 => uint32) nftPower;\r\n\r\n    constructor() ERC721(\"NFTWeapon\", \"WPN\") {\r\n        metadata_values[0] = \"QmSDQpmDqQNHB2ExYBvocEJXw4fLT6oRjGDDDaTA5huLeW\";\r\n        metadata_values[1] = \"QmPZLRNkjYrwELfN4WSrZpZndfrJqfu6J5y1VdhjdtWq7M\";\r\n        metadata_values[2] = \"QmcrMCZ78fd64h81AU4mAUQYjXCnTcBTLX9Q5VjN2BsokN\";\r\n    }\r\n\r\n    modifier onlyGame() {\r\n        require(msg.sender == gameAddress);\r\n        _;\r\n    }\r\n\r\n    function _baseURI() internal pure override returns (string memory) {\r\n        return \"https://chainlinkbootcamp.infura-ipfs.io/ipfs/\";\r\n    }\r\n\r\n    function safeMint(address to) external onlyGame returns (uint256 tokenId) {\r\n        tokenId = _tokenIdCounter.current();\r\n        _tokenIdCounter.increment();\r\n        _safeMint(to, tokenId);\r\n        nftPower[tokenId] = 0;\r\n    }\r\n\r\n    function levelUp(uint256 _tokenId) external onlyGame {\r\n        nftPower[_tokenId] += 1;\r\n    }\r\n\r\n    function burn(uint256 _tokenId) external onlyGame {\r\n        super._burn(_tokenId);\r\n        delete nftPower[_tokenId];\r\n    }\r\n\r\n    function getNftPower(\r\n        uint256 _tokenId\r\n    ) external view returns (uint32 _power) {\r\n        _requireMinted(_tokenId);\r\n        return nftPower[_tokenId];\r\n    }\r\n\r\n    function setGameAddress(address _gameAddress) external onlyOwner {\r\n        gameAddress = _gameAddress;\r\n    }\r\n\r\n    function setMetadata(uint32 level, string memory value) external onlyOwner {\r\n        metadata_values[level] = value;\r\n    }\r\n\r\n    function getMetadata(uint32 level) view external returns(string memory _result) {\r\n        return metadata_values[level];\r\n    }\r\n\r\n    function tokenURI(\r\n        uint256 _tokenId\r\n    ) public view override returns (string memory) {\r\n        _requireMinted(_tokenId);\r\n\r\n        string memory base = _baseURI();\r\n        uint32 nftLevel = nftPower[_tokenId];\r\n\r\n        return string(abi.encodePacked(base,  metadata_values[nftLevel]));\r\n    }\r\n}\r\n",
  "sourcePath": "C:\\projetos\\pessoais\\forge_weapons\\Truffle\\contracts\\NFTWeapon.sol",
  "compiler": {
    "name": "solc",
    "version": "0.8.17+commit.8df45f5f.Emscripten.clang"
  },
  "schemaVersion": "3.4.13",
  "updatedAt": "2023-06-07T00:50:29.922Z",
  "networkType": "ethereum",
  "devdoc": {
    "kind": "dev",
    "methods": {
      "approve(address,uint256)": {
        "details": "See {IERC721-approve}."
      },
      "balanceOf(address)": {
        "details": "See {IERC721-balanceOf}."
      },
      "getApproved(uint256)": {
        "details": "See {IERC721-getApproved}."
      },
      "isApprovedForAll(address,address)": {
        "details": "See {IERC721-isApprovedForAll}."
      },
      "name()": {
        "details": "See {IERC721Metadata-name}."
      },
      "owner()": {
        "details": "Returns the address of the current owner."
      },
      "ownerOf(uint256)": {
        "details": "See {IERC721-ownerOf}."
      },
      "renounceOwnership()": {
        "details": "Leaves the contract without owner. It will not be possible to call `onlyOwner` functions anymore. Can only be called by the current owner. NOTE: Renouncing ownership will leave the contract without an owner, thereby removing any functionality that is only available to the owner."
      },
      "safeTransferFrom(address,address,uint256)": {
        "details": "See {IERC721-safeTransferFrom}."
      },
      "safeTransferFrom(address,address,uint256,bytes)": {
        "details": "See {IERC721-safeTransferFrom}."
      },
      "setApprovalForAll(address,bool)": {
        "details": "See {IERC721-setApprovalForAll}."
      },
      "supportsInterface(bytes4)": {
        "details": "See {IERC165-supportsInterface}."
      },
      "symbol()": {
        "details": "See {IERC721Metadata-symbol}."
      },
      "transferFrom(address,address,uint256)": {
        "details": "See {IERC721-transferFrom}."
      },
      "transferOwnership(address)": {
        "details": "Transfers ownership of the contract to a new account (`newOwner`). Can only be called by the current owner."
      }
    },
    "version": 1
  },
  "userdoc": {
    "kind": "user",
    "methods": {},
    "version": 1
  }
}