{
  "contractName": "VRFV2Consumer",
  "abi": [
    {
      "inputs": [
        {
          "internalType": "uint64",
          "name": "subscriptionId",
          "type": "uint64"
        },
        {
          "internalType": "address",
          "name": "cordinatorAddress",
          "type": "address"
        },
        {
          "internalType": "bytes32",
          "name": "_keyHash",
          "type": "bytes32"
        }
      ],
      "stateMutability": "nonpayable",
      "type": "constructor"
    },
    {
      "inputs": [
        {
          "internalType": "address",
          "name": "have",
          "type": "address"
        },
        {
          "internalType": "address",
          "name": "want",
          "type": "address"
        }
      ],
      "name": "OnlyCoordinatorCanFulfill",
      "type": "error"
    },
    {
      "anonymous": false,
      "inputs": [
        {
          "indexed": true,
          "internalType": "address",
          "name": "previousOwner",
          "type": "address"
        },
        {
          "indexed": true,
          "internalType": "address",
          "name": "newOwner",
          "type": "address"
        }
      ],
      "name": "OwnershipTransferred",
      "type": "event"
    },
    {
      "anonymous": false,
      "inputs": [
        {
          "indexed": false,
          "internalType": "uint256",
          "name": "requestId",
          "type": "uint256"
        },
        {
          "indexed": false,
          "internalType": "uint256[]",
          "name": "randomWords",
          "type": "uint256[]"
        }
      ],
      "name": "RequestFulfilled",
      "type": "event"
    },
    {
      "anonymous": false,
      "inputs": [
        {
          "indexed": false,
          "internalType": "uint256",
          "name": "requestId",
          "type": "uint256"
        },
        {
          "indexed": false,
          "internalType": "uint32",
          "name": "numWords",
          "type": "uint32"
        }
      ],
      "name": "RequestSent",
      "type": "event"
    },
    {
      "inputs": [],
      "name": "lastRequestId",
      "outputs": [
        {
          "internalType": "uint256",
          "name": "",
          "type": "uint256"
        }
      ],
      "stateMutability": "view",
      "type": "function"
    },
    {
      "inputs": [],
      "name": "owner",
      "outputs": [
        {
          "internalType": "address",
          "name": "",
          "type": "address"
        }
      ],
      "stateMutability": "view",
      "type": "function"
    },
    {
      "inputs": [
        {
          "internalType": "uint256",
          "name": "requestId",
          "type": "uint256"
        },
        {
          "internalType": "uint256[]",
          "name": "randomWords",
          "type": "uint256[]"
        }
      ],
      "name": "rawFulfillRandomWords",
      "outputs": [],
      "stateMutability": "nonpayable",
      "type": "function"
    },
    {
      "inputs": [],
      "name": "renounceOwnership",
      "outputs": [],
      "stateMutability": "nonpayable",
      "type": "function"
    },
    {
      "inputs": [
        {
          "internalType": "uint256",
          "name": "",
          "type": "uint256"
        }
      ],
      "name": "requestIds",
      "outputs": [
        {
          "internalType": "uint256",
          "name": "",
          "type": "uint256"
        }
      ],
      "stateMutability": "view",
      "type": "function"
    },
    {
      "inputs": [
        {
          "internalType": "uint256",
          "name": "",
          "type": "uint256"
        }
      ],
      "name": "s_requests",
      "outputs": [
        {
          "internalType": "bool",
          "name": "fulfilled",
          "type": "bool"
        },
        {
          "internalType": "bool",
          "name": "exists",
          "type": "bool"
        }
      ],
      "stateMutability": "view",
      "type": "function"
    },
    {
      "inputs": [
        {
          "internalType": "address",
          "name": "newOwner",
          "type": "address"
        }
      ],
      "name": "transferOwnership",
      "outputs": [],
      "stateMutability": "nonpayable",
      "type": "function"
    },
    {
      "inputs": [
        {
          "internalType": "uint256",
          "name": "_requestId",
          "type": "uint256"
        }
      ],
      "name": "getRequestStatus",
      "outputs": [
        {
          "internalType": "bool",
          "name": "fulfilled",
          "type": "bool"
        },
        {
          "internalType": "uint256[]",
          "name": "randomWords",
          "type": "uint256[]"
        }
      ],
      "stateMutability": "view",
      "type": "function"
    },
    {
      "inputs": [
        {
          "internalType": "bytes32",
          "name": "_keyHash",
          "type": "bytes32"
        }
      ],
      "name": "setKeyHashValue",
      "outputs": [],
      "stateMutability": "nonpayable",
      "type": "function"
    },
    {
      "inputs": [
        {
          "internalType": "uint32",
          "name": "_callBackGasLimit",
          "type": "uint32"
        }
      ],
      "name": "setCallBackGasLimit",
      "outputs": [],
      "stateMutability": "nonpayable",
      "type": "function"
    },
    {
      "inputs": [
        {
          "internalType": "uint16",
          "name": "_requestConfirmations",
          "type": "uint16"
        }
      ],
      "name": "setRequestConfirmations",
      "outputs": [],
      "stateMutability": "nonpayable",
      "type": "function"
    },
    {
      "inputs": [
        {
          "internalType": "uint64",
          "name": "_s_subscriptionId",
          "type": "uint64"
        }
      ],
      "name": "setSubscriptionId",
      "outputs": [],
      "stateMutability": "nonpayable",
      "type": "function"
    }
  ],
  "bytecode": "0x60a06040523480156200001157600080fd5b50604051620013f8380380620013f88339818101604052810190620000379190620002ff565b818073ffffffffffffffffffffffffffffffffffffffff1660808173ffffffffffffffffffffffffffffffffffffffff1681525050506200008d620000816200014960201b60201c565b6200015160201b60201c565b81600260006101000a81548173ffffffffffffffffffffffffffffffffffffffff021916908373ffffffffffffffffffffffffffffffffffffffff16021790555082600260146101000a81548167ffffffffffffffff021916908367ffffffffffffffff160217905550806005819055506207a120600660006101000a81548163ffffffff021916908363ffffffff1602179055506003600660046101000a81548161ffff021916908361ffff1602179055505050506200035b565b600033905090565b60008060009054906101000a900473ffffffffffffffffffffffffffffffffffffffff169050816000806101000a81548173ffffffffffffffffffffffffffffffffffffffff021916908373ffffffffffffffffffffffffffffffffffffffff1602179055508173ffffffffffffffffffffffffffffffffffffffff168173ffffffffffffffffffffffffffffffffffffffff167f8be0079c531659141344cd1fd0a4f28419497f9722a3daafe3b4186f6b6457e060405160405180910390a35050565b600080fd5b600067ffffffffffffffff82169050919050565b62000239816200021a565b81146200024557600080fd5b50565b60008151905062000259816200022e565b92915050565b600073ffffffffffffffffffffffffffffffffffffffff82169050919050565b60006200028c826200025f565b9050919050565b6200029e816200027f565b8114620002aa57600080fd5b50565b600081519050620002be8162000293565b92915050565b6000819050919050565b620002d981620002c4565b8114620002e557600080fd5b50565b600081519050620002f981620002ce565b92915050565b6000806000606084860312156200031b576200031a62000215565b5b60006200032b8682870162000248565b93505060206200033e86828701620002ad565b92505060406200035186828701620002e8565b9150509250925092565b60805161107a6200037e6000396000818161023b015261028f015261107a6000f3fe608060405234801561001057600080fd5b50600436106100b45760003560e01c8063a168fa8911610071578063a168fa8914610165578063a7348e5f14610196578063d8a4676f146101b2578063ea7b4f77146101e3578063f2fde38b146101ff578063fc2a88c31461021b576100b4565b80631fe543e3146100b9578063715018a6146100d55780638796ba8c146100df5780638824f5a71461010f5780638da5cb5b1461012b578063982d808414610149575b600080fd5b6100d360048036038101906100ce9190610a36565b610239565b005b6100dd6102f9565b005b6100f960048036038101906100f49190610a92565b61030d565b6040516101069190610ace565b60405180910390f35b61012960048036038101906101249190610b23565b610331565b005b610133610359565b6040516101409190610b91565b60405180910390f35b610163600480360381019061015e9190610be8565b610382565b005b61017f600480360381019061017a9190610a92565b6103ae565b60405161018d929190610c30565b60405180910390f35b6101b060048036038101906101ab9190610c8f565b6103ec565b005b6101cc60048036038101906101c79190610a92565b6103fe565b6040516101da929190610d7a565b60405180910390f35b6101fd60048036038101906101f89190610dea565b610529565b005b61021960048036038101906102149190610e43565b61055d565b005b6102236105e0565b6040516102309190610ace565b60405180910390f35b7f000000000000000000000000000000000000000000000000000000000000000073ffffffffffffffffffffffffffffffffffffffff163373ffffffffffffffffffffffffffffffffffffffff16146102eb57337f00000000000000000000000000000000000000000000000000000000000000006040517f1cf993f40000000000000000000000000000000000000000000000000000000081526004016102e2929190610e70565b60405180910390fd5b6102f582826105e6565b5050565b6103016106df565b61030b600061075d565b565b6003818154811061031d57600080fd5b906000526020600020016000915090505481565b6103396106df565b80600660046101000a81548161ffff021916908361ffff16021790555050565b60008060009054906101000a900473ffffffffffffffffffffffffffffffffffffffff16905090565b61038a6106df565b80600660006101000a81548163ffffffff021916908363ffffffff16021790555050565b60016020528060005260406000206000915090508060000160009054906101000a900460ff16908060000160019054906101000a900460ff16905082565b6103f46106df565b8060058190555050565b600060606001600084815260200190815260200160002060000160019054906101000a900460ff16610465576040517f08c379a000000000000000000000000000000000000000000000000000000000815260040161045c90610ef6565b60405180910390fd5b6000600160008581526020019081526020016000206040518060600160405290816000820160009054906101000a900460ff161515151581526020016000820160019054906101000a900460ff161515151581526020016001820180548060200260200160405190810160405280929190818152602001828054801561050a57602002820191906000526020600020905b8154815260200190600101908083116104f6575b5050505050815250509050806000015181604001519250925050915091565b6105316106df565b80600260146101000a81548167ffffffffffffffff021916908367ffffffffffffffff16021790555050565b6105656106df565b600073ffffffffffffffffffffffffffffffffffffffff168173ffffffffffffffffffffffffffffffffffffffff16036105d4576040517f08c379a00000000000000000000000000000000000000000000000000000000081526004016105cb90610f88565b60405180910390fd5b6105dd8161075d565b50565b60045481565b6001600083815260200190815260200160002060000160019054906101000a900460ff16610649576040517f08c379a000000000000000000000000000000000000000000000000000000000815260040161064090610ef6565b60405180910390fd5b600180600084815260200190815260200160002060000160006101000a81548160ff021916908315150217905550806001600084815260200190815260200160002060010190805190602001906106a1929190610829565b507ffe2e2d779dba245964d4e3ef9b994be63856fd568bf7d3ca9e224755cb1bd54d82826040516106d3929190610fa8565b60405180910390a15050565b6106e7610821565b73ffffffffffffffffffffffffffffffffffffffff16610705610359565b73ffffffffffffffffffffffffffffffffffffffff161461075b576040517f08c379a000000000000000000000000000000000000000000000000000000000815260040161075290611024565b60405180910390fd5b565b60008060009054906101000a900473ffffffffffffffffffffffffffffffffffffffff169050816000806101000a81548173ffffffffffffffffffffffffffffffffffffffff021916908373ffffffffffffffffffffffffffffffffffffffff1602179055508173ffffffffffffffffffffffffffffffffffffffff168173ffffffffffffffffffffffffffffffffffffffff167f8be0079c531659141344cd1fd0a4f28419497f9722a3daafe3b4186f6b6457e060405160405180910390a35050565b600033905090565b828054828255906000526020600020908101928215610865579160200282015b82811115610864578251825591602001919060010190610849565b5b5090506108729190610876565b5090565b5b8082111561088f576000816000905550600101610877565b5090565b6000604051905090565b600080fd5b600080fd5b6000819050919050565b6108ba816108a7565b81146108c557600080fd5b50565b6000813590506108d7816108b1565b92915050565b600080fd5b6000601f19601f8301169050919050565b7f4e487b7100000000000000000000000000000000000000000000000000000000600052604160045260246000fd5b61092b826108e2565b810181811067ffffffffffffffff8211171561094a576109496108f3565b5b80604052505050565b600061095d610893565b90506109698282610922565b919050565b600067ffffffffffffffff821115610989576109886108f3565b5b602082029050602081019050919050565b600080fd5b60006109b26109ad8461096e565b610953565b905080838252602082019050602084028301858111156109d5576109d461099a565b5b835b818110156109fe57806109ea88826108c8565b8452602084019350506020810190506109d7565b5050509392505050565b600082601f830112610a1d57610a1c6108dd565b5b8135610a2d84826020860161099f565b91505092915050565b60008060408385031215610a4d57610a4c61089d565b5b6000610a5b858286016108c8565b925050602083013567ffffffffffffffff811115610a7c57610a7b6108a2565b5b610a8885828601610a08565b9150509250929050565b600060208284031215610aa857610aa761089d565b5b6000610ab6848285016108c8565b91505092915050565b610ac8816108a7565b82525050565b6000602082019050610ae36000830184610abf565b92915050565b600061ffff82169050919050565b610b0081610ae9565b8114610b0b57600080fd5b50565b600081359050610b1d81610af7565b92915050565b600060208284031215610b3957610b3861089d565b5b6000610b4784828501610b0e565b91505092915050565b600073ffffffffffffffffffffffffffffffffffffffff82169050919050565b6000610b7b82610b50565b9050919050565b610b8b81610b70565b82525050565b6000602082019050610ba66000830184610b82565b92915050565b600063ffffffff82169050919050565b610bc581610bac565b8114610bd057600080fd5b50565b600081359050610be281610bbc565b92915050565b600060208284031215610bfe57610bfd61089d565b5b6000610c0c84828501610bd3565b91505092915050565b60008115159050919050565b610c2a81610c15565b82525050565b6000604082019050610c456000830185610c21565b610c526020830184610c21565b9392505050565b6000819050919050565b610c6c81610c59565b8114610c7757600080fd5b50565b600081359050610c8981610c63565b92915050565b600060208284031215610ca557610ca461089d565b5b6000610cb384828501610c7a565b91505092915050565b600081519050919050565b600082825260208201905092915050565b6000819050602082019050919050565b610cf1816108a7565b82525050565b6000610d038383610ce8565b60208301905092915050565b6000602082019050919050565b6000610d2782610cbc565b610d318185610cc7565b9350610d3c83610cd8565b8060005b83811015610d6d578151610d548882610cf7565b9750610d5f83610d0f565b925050600181019050610d40565b5085935050505092915050565b6000604082019050610d8f6000830185610c21565b8181036020830152610da18184610d1c565b90509392505050565b600067ffffffffffffffff82169050919050565b610dc781610daa565b8114610dd257600080fd5b50565b600081359050610de481610dbe565b92915050565b600060208284031215610e0057610dff61089d565b5b6000610e0e84828501610dd5565b91505092915050565b610e2081610b70565b8114610e2b57600080fd5b50565b600081359050610e3d81610e17565b92915050565b600060208284031215610e5957610e5861089d565b5b6000610e6784828501610e2e565b91505092915050565b6000604082019050610e856000830185610b82565b610e926020830184610b82565b9392505050565b600082825260208201905092915050565b7f72657175657374206e6f7420666f756e64000000000000000000000000000000600082015250565b6000610ee0601183610e99565b9150610eeb82610eaa565b602082019050919050565b60006020820190508181036000830152610f0f81610ed3565b9050919050565b7f4f776e61626c653a206e6577206f776e657220697320746865207a65726f206160008201527f6464726573730000000000000000000000000000000000000000000000000000602082015250565b6000610f72602683610e99565b9150610f7d82610f16565b604082019050919050565b60006020820190508181036000830152610fa181610f65565b9050919050565b6000604082019050610fbd6000830185610abf565b8181036020830152610fcf8184610d1c565b90509392505050565b7f4f776e61626c653a2063616c6c6572206973206e6f7420746865206f776e6572600082015250565b600061100e602083610e99565b915061101982610fd8565b602082019050919050565b6000602082019050818103600083015261103d81611001565b905091905056fea264697066735822122098ffe5f92b20be6cf1df1048f76749d12500ed5ab53244dd2a7b1b4e026dd38064736f6c63430008110033",
  "immutableReferences": {
    "10": [
      {
        "length": 32,
        "start": 571
      },
      {
        "length": 32,
        "start": 655
      }
    ]
  },
  "source": "// SPDX-License-Identifier: MIT\r\npragma solidity ^0.8.7;\r\n\r\nimport '@chainlink/contracts/src/v0.8/interfaces/VRFCoordinatorV2Interface.sol';\r\nimport '@chainlink/contracts/src/v0.8/VRFConsumerBaseV2.sol';\r\n\r\nimport \"@openzeppelin/contracts/access/Ownable.sol\";\r\n\r\ncontract VRFV2Consumer is VRFConsumerBaseV2, Ownable {\r\n    event RequestSent(uint256 requestId, uint32 numWords);\r\n    event RequestFulfilled(uint256 requestId, uint256[] randomWords);\r\n\r\n    struct RequestStatus {\r\n        bool fulfilled;\r\n        bool exists;\r\n        uint256[] randomWords;\r\n    }\r\n\r\n    mapping(uint256 => RequestStatus) public s_requests; /* requestId --> requestStatus */\r\n    VRFCoordinatorV2Interface COORDINATOR;\r\n\r\n    // Your subscription ID.\r\n    uint64 s_subscriptionId;\r\n\r\n    // past requests Id.\r\n    uint256[] public requestIds;\r\n    uint256 public lastRequestId;\r\n\r\n    // The gas lane to use, which specifies the maximum gas price to bump to.\r\n    // For a list of available gas lanes on each network,\r\n    // see https://docs.chain.link/docs/vrf/v2/subscription/supported-networks/#configurations\r\n    bytes32 keyHash;\r\n\r\n    // Depends on the number of requested values that you want sent to the\r\n    // fulfillRandomWords() function. Storing each word costs about 20,000 gas,\r\n    // so 100,000 is a safe default for this example contract. Test and adjust\r\n    // this limit based on the network that you select, the size of the request,\r\n    // and the processing of the callback request in the fulfillRandomWords()\r\n    // function.\r\n    uint32 callbackGasLimit;\r\n\r\n    // The default is 3, but you can set this higher.\r\n    uint16 requestConfirmations;\r\n\r\n    constructor(uint64 subscriptionId, address cordinatorAddress, bytes32 _keyHash)\r\n        VRFConsumerBaseV2(cordinatorAddress)\r\n    {\r\n        COORDINATOR = VRFCoordinatorV2Interface(cordinatorAddress);\r\n        s_subscriptionId = subscriptionId;\r\n        keyHash = _keyHash;\r\n        callbackGasLimit = 500000;\r\n        requestConfirmations = 3;\r\n    }\r\n\r\n    // Assumes the subscription is funded sufficiently.\r\n    function requestRandomWords(uint32 _numWords) internal returns (uint256 requestId) {\r\n        // Will revert if subscription is not set and funded.\r\n        requestId = COORDINATOR.requestRandomWords(\r\n            keyHash,\r\n            s_subscriptionId,\r\n            requestConfirmations,\r\n            callbackGasLimit,\r\n            _numWords\r\n        );\r\n        s_requests[requestId] = RequestStatus({randomWords: new uint256[](0), exists: true, fulfilled: false});\r\n        requestIds.push(requestId);\r\n        lastRequestId = requestId;\r\n        emit RequestSent(requestId, _numWords);\r\n        return requestId;\r\n    }\r\n\r\n    function fulfillRandomWords(uint256 _requestId, uint256[] memory _randomWords) internal virtual override {\r\n        require(s_requests[_requestId].exists, 'request not found');\r\n        s_requests[_requestId].fulfilled = true;\r\n        s_requests[_requestId].randomWords = _randomWords;\r\n        emit RequestFulfilled(_requestId, _randomWords);\r\n    }\r\n\r\n    function getRequestStatus(uint256 _requestId) external view returns (bool fulfilled, uint256[] memory randomWords) {\r\n        require(s_requests[_requestId].exists, 'request not found');\r\n        RequestStatus memory request = s_requests[_requestId];\r\n        return (request.fulfilled, request.randomWords);\r\n    }\r\n\r\n    function setKeyHashValue(bytes32 _keyHash) external onlyOwner {\r\n        keyHash = _keyHash;\r\n    }\r\n\r\n    function setCallBackGasLimit(uint32 _callBackGasLimit) external onlyOwner {\r\n        callbackGasLimit = _callBackGasLimit;\r\n    }\r\n\r\n    function setRequestConfirmations(uint16 _requestConfirmations) external onlyOwner {\r\n        requestConfirmations = _requestConfirmations;\r\n    }\r\n\r\n    function setSubscriptionId(uint64 _s_subscriptionId) external onlyOwner {\r\n        s_subscriptionId = _s_subscriptionId;\r\n    }\r\n}\r\n",
  "sourcePath": "C:\\projetos\\pessoais\\forge_weapons\\Truffle\\contracts\\VRFV2Consumer.sol",
  "compiler": {
    "name": "solc",
    "version": "0.8.17+commit.8df45f5f.Emscripten.clang"
  },
  "schemaVersion": "3.4.13",
  "updatedAt": "2023-06-07T00:49:53.679Z",
  "devdoc": {
    "kind": "dev",
    "methods": {
      "owner()": {
        "details": "Returns the address of the current owner."
      },
      "renounceOwnership()": {
        "details": "Leaves the contract without owner. It will not be possible to call `onlyOwner` functions anymore. Can only be called by the current owner. NOTE: Renouncing ownership will leave the contract without an owner, thereby removing any functionality that is only available to the owner."
      },
      "transferOwnership(address)": {
        "details": "Transfers ownership of the contract to a new account (`newOwner`). Can only be called by the current owner."
      }
    },
    "version": 1
  },
  "userdoc": {
    "kind": "user",
    "methods": {},
    "version": 1
  }
}